{
  "contractName": "AllowanceWrapper",
  "abi": [
    {
      "inputs": [
        {
          "name": "_target",
          "type": "address"
        }
      ],
      "payable": false,
      "stateMutability": "nonpayable",
      "type": "constructor"
    },
    {
      "anonymous": false,
      "inputs": [
        {
          "indexed": true,
          "name": "_owner",
          "type": "address"
        },
        {
          "indexed": true,
          "name": "_spender",
          "type": "address"
        },
        {
          "indexed": true,
          "name": "_id",
          "type": "uint256"
        },
        {
          "indexed": false,
          "name": "_oldValue",
          "type": "uint256"
        },
        {
          "indexed": false,
          "name": "_value",
          "type": "uint256"
        }
      ],
      "name": "Approval",
      "type": "event"
    },
    {
      "anonymous": false,
      "inputs": [
        {
          "indexed": true,
          "name": "_operator",
          "type": "address"
        },
        {
          "indexed": true,
          "name": "_from",
          "type": "address"
        },
        {
          "indexed": true,
          "name": "_to",
          "type": "address"
        },
        {
          "indexed": false,
          "name": "_id",
          "type": "uint256"
        },
        {
          "indexed": false,
          "name": "_value",
          "type": "uint256"
        }
      ],
      "name": "TransferSingle",
      "type": "event"
    },
    {
      "anonymous": false,
      "inputs": [
        {
          "indexed": true,
          "name": "_operator",
          "type": "address"
        },
        {
          "indexed": true,
          "name": "_from",
          "type": "address"
        },
        {
          "indexed": true,
          "name": "_to",
          "type": "address"
        },
        {
          "indexed": false,
          "name": "_ids",
          "type": "uint256[]"
        },
        {
          "indexed": false,
          "name": "_values",
          "type": "uint256[]"
        }
      ],
      "name": "TransferBatch",
      "type": "event"
    },
    {
      "anonymous": false,
      "inputs": [
        {
          "indexed": true,
          "name": "_owner",
          "type": "address"
        },
        {
          "indexed": true,
          "name": "_operator",
          "type": "address"
        },
        {
          "indexed": false,
          "name": "_approved",
          "type": "bool"
        }
      ],
      "name": "ApprovalForAll",
      "type": "event"
    },
    {
      "anonymous": false,
      "inputs": [
        {
          "indexed": false,
          "name": "_value",
          "type": "string"
        },
        {
          "indexed": true,
          "name": "_id",
          "type": "uint256"
        }
      ],
      "name": "URI",
      "type": "event"
    },
    {
      "anonymous": false,
      "inputs": [
        {
          "indexed": false,
          "name": "_value",
          "type": "string"
        },
        {
          "indexed": true,
          "name": "_id",
          "type": "uint256"
        }
      ],
      "name": "Name",
      "type": "event"
    },
    {
      "constant": false,
      "inputs": [
        {
          "name": "_spender",
          "type": "address"
        },
        {
          "name": "_id",
          "type": "uint256"
        },
        {
          "name": "_currentValue",
          "type": "uint256"
        },
        {
          "name": "_value",
          "type": "uint256"
        }
      ],
      "name": "approve",
      "outputs": [],
      "payable": false,
      "stateMutability": "nonpayable",
      "type": "function"
    },
    {
      "constant": true,
      "inputs": [
        {
          "name": "_owner",
          "type": "address"
        },
        {
          "name": "_spender",
          "type": "address"
        },
        {
          "name": "_id",
          "type": "uint256"
        }
      ],
      "name": "allowance",
      "outputs": [
        {
          "name": "",
          "type": "uint256"
        }
      ],
      "payable": false,
      "stateMutability": "view",
      "type": "function"
    },
    {
      "constant": true,
      "inputs": [
        {
          "name": "_interfaceId",
          "type": "bytes4"
        }
      ],
      "name": "supportsInterface",
      "outputs": [
        {
          "name": "",
          "type": "bool"
        }
      ],
      "payable": false,
      "stateMutability": "view",
      "type": "function"
    },
    {
      "constant": false,
      "inputs": [
        {
          "name": "_from",
          "type": "address"
        },
        {
          "name": "_to",
          "type": "address"
        },
        {
          "name": "_id",
          "type": "uint256"
        },
        {
          "name": "_value",
          "type": "uint256"
        },
        {
          "name": "_data",
          "type": "bytes"
        }
      ],
      "name": "safeTransferFrom",
      "outputs": [],
      "payable": false,
      "stateMutability": "nonpayable",
      "type": "function"
    },
    {
      "constant": false,
      "inputs": [
        {
          "name": "_from",
          "type": "address"
        },
        {
          "name": "_to",
          "type": "address"
        },
        {
          "name": "_ids",
          "type": "uint256[]"
        },
        {
          "name": "_values",
          "type": "uint256[]"
        },
        {
          "name": "_data",
          "type": "bytes"
        }
      ],
      "name": "safeBatchTransferFrom",
      "outputs": [],
      "payable": false,
      "stateMutability": "nonpayable",
      "type": "function"
    },
    {
      "constant": true,
      "inputs": [
        {
          "name": "_owner",
          "type": "address"
        },
        {
          "name": "_id",
          "type": "uint256"
        }
      ],
      "name": "balanceOf",
      "outputs": [
        {
          "name": "",
          "type": "uint256"
        }
      ],
      "payable": false,
      "stateMutability": "view",
      "type": "function"
    },
    {
      "constant": false,
      "inputs": [
        {
          "name": "",
          "type": "address"
        },
        {
          "name": "",
          "type": "bool"
        }
      ],
      "name": "setApprovalForAll",
      "outputs": [],
      "payable": false,
      "stateMutability": "nonpayable",
      "type": "function"
    },
    {
      "constant": true,
      "inputs": [
        {
          "name": "_owner",
          "type": "address"
        },
        {
          "name": "_operator",
          "type": "address"
        }
      ],
      "name": "isApprovedForAll",
      "outputs": [
        {
          "name": "",
          "type": "bool"
        }
      ],
      "payable": false,
      "stateMutability": "view",
      "type": "function"
    }
  ],
  "bytecode": "0x608060405234801561001057600080fd5b50604051602080610894833981016040525160008054600160a060020a03909216600160a060020a0319909216919091179055610842806100526000396000f30060806040526004361061008c5763ffffffff7c0100000000000000000000000000000000000000000000000000000000600035041662fdd58e811461009157806301ffc9a7146100c75780632eb2c2d6146101125780634f4df44214610161578063598af9e71461018b578063a22cb465146101b5578063e985e9c5146101db578063f242432a14610202575b600080fd5b34801561009d57600080fd5b506100b5600160a060020a036004351660243561023f565b60408051918252519081900360200190f35b3480156100d357600080fd5b506100fe7bffffffffffffffffffffffffffffffffffffffffffffffffffffffff19600435166102df565b604080519115158252519081900360200190f35b34801561011e57600080fd5b5061015f600160a060020a03600480358216916024803590911691604435808301929082013591606435808301929082013591608435918201910135610396565b005b34801561016d57600080fd5b5061015f600160a060020a0360043516602435604435606435610576565b34801561019757600080fd5b506100b5600160a060020a036004358116906024351660443561061d565b3480156101c157600080fd5b5061015f600160a060020a0360043516602435151561008c565b3480156101e757600080fd5b506100fe600160a060020a036004358116906024351661064f565b34801561020e57600080fd5b5061015f600160a060020a0360048035821691602480359091169160443591606435916084359182019101356106bf565b60008054604080517efdd58e000000000000000000000000000000000000000000000000000000008152600160a060020a038681166004830152602482018690529151919092169162fdd58e91604480830192602092919082900301818787803b1580156102ac57600080fd5b505af11580156102c0573d6000803e3d6000fd5b505050506040513d60208110156102d657600080fd5b50519392505050565b60008054604080517f01ffc9a70000000000000000000000000000000000000000000000000000000081527bffffffffffffffffffffffffffffffffffffffffffffffffffffffff19851660048201529051600160a060020a03909216916301ffc9a79160248082019260209290919082900301818787803b15801561036457600080fd5b505af1158015610378573d6000803e3d6000fd5b505050506040513d602081101561038e57600080fd5b509092915050565b600033600160a060020a038a1614610472575060005b85811015610472576104208585838181106103c357fe5b600160a060020a038d1660009081526001602090815260408083203384528252822092029390930135929091508a8a868181106103fc57fe5b9050602002013581526020019081526020016000205461080490919063ffffffff16565b600160a060020a038a16600090815260016020908152604080832033845290915281209089898581811061045057fe5b60209081029290920135835250810191909152604001600020556001016103ac565b6000546040517f2eb2c2d6000000000000000000000000000000000000000000000000000000008152600160a060020a038b8116600483019081528b8216602484015260a06044840190815260a484018b90529190931692632eb2c2d6928d928d928d928d928d928d928d928d92916064810190608481019060c4018a60208b028082843790910185810384528881526020908101915089908902808284379091018581038352868152602001905086868082843782019150509b505050505050505050505050600060405180830381600087803b15801561055357600080fd5b505af1158015610567573d6000803e3d6000fd5b50505050505050505050505050565b336000908152600160209081526040808320600160a060020a0388168452825280832086845290915290205482146105ad57600080fd5b336000818152600160209081526040808320600160a060020a038916808552908352818420888552835292819020859055805186815291820185905280518794927f3a9c85c6b31f7a9d7fe1478f53e1be42e85db97ca30d1789cfef9196dbc472c992908290030190a450505050565b600160a060020a0392831660009081526001602090815260408083209490951682529283528381209181529152205490565b60008054604080517fe985e9c5000000000000000000000000000000000000000000000000000000008152600160a060020a03868116600483015285811660248301529151919092169163e985e9c591604480830192602092919082900301818787803b1580156102ac57600080fd5b33600160a060020a0387161461073857600160a060020a0386166000908152600160209081526040808320338452825280832087845290915290205461070b908463ffffffff61080416565b600160a060020a038716600090815260016020908152604080832033845282528083208884529091529020555b6000546040517ff242432a000000000000000000000000000000000000000000000000000000008152600160a060020a03888116600483019081528882166024840152604483018890526064830187905260a06084840190815260a48401869052919093169263f242432a928a928a928a928a928a928a9290919060c4018484808284378201915050975050505050505050600060405180830381600087803b1580156107e457600080fd5b505af11580156107f8573d6000803e3d6000fd5b50505050505050505050565b60008282111561081057fe5b509003905600a165627a7a72305820bd2775d41c61841a85156b9df9f91fb49d3886ec97c83989e2eb1ddfacd16ca50029",
  "source": "pragma solidity ^0.4.24;\n\nimport \"./IERC1155.sol\";\nimport \"./ERC165.sol\";\nimport \"./SafeMath.sol\";\n\n// Shows how you could wrap some allowance on top of ERC1155\n// A user would setApprovalForAll(true) for this wrapper in the target contract,\n// and the set the individual allowances here.\ncontract AllowanceWrapper is IERC1155, ERC165\n{\n    using SafeMath for uint256;\n\n    IERC1155 targetContract;\n\n    // from => operator => id => allowance\n    mapping(address => mapping(address => mapping(uint256 => uint256))) allowances;\n\n    /**\n        @dev Pass in the target contract.\n    */\n    constructor(address _target) public {\n        targetContract = IERC1155(_target);\n    }\n\n    /**\n        @dev MUST emit on any successful call to approve(address _spender, uint256 _id, uint256 _currentValue, uint256 _value)\n    */\n    event Approval(address indexed _owner, address indexed _spender, uint256 indexed _id, uint256 _oldValue, uint256 _value);\n\n    /**\n        @notice Allow other accounts/contracts to spend tokens on behalf of msg.sender\n        @dev MUST emit Approval event on success.\n        To minimize the risk of the approve/transferFrom attack vector (see https://docs.google.com/document/d/1YLPtQxZu1UAvO9cZ1O2RPXBbT0mooh4DYKjA_jp-RLM/), this function will throw if the current approved allowance does not equal the expected _currentValue, unless _value is 0.\n        @param _spender      Address to approve\n        @param _id           ID of the Token\n        @param _currentValue Expected current value of approved allowance.\n        @param _value        Allowance amount\n    */\n    function approve(address _spender, uint256 _id, uint256 _currentValue, uint256 _value) external {\n\n        require(allowances[msg.sender][_spender][_id] == _currentValue);\n        allowances[msg.sender][_spender][_id] = _value;\n\n        emit Approval(msg.sender, _spender, _id, _currentValue, _value);\n    }\n\n    /**\n        @notice Queries the spending limit approved for an account\n        @param _id       ID of the Token\n        @param _owner    The owner allowing the spending\n        @param _spender  The address allowed to spend.\n        @return          The _spender's allowed spending balance of the Token requested\n     */\n    function allowance(address _owner, address _spender, uint256 _id) external view returns (uint256){\n        return allowances[_owner][_spender][_id];\n    }\n\n    // ERC1155\n\n    function supportsInterface(bytes4 _interfaceId)\n    external\n    view\n    returns (bool) {\n         ERC165(targetContract).supportsInterface(_interfaceId);\n    }\n\n    /**\n        @notice Transfers value amount of an _id from the _from address to the _to addresses specified. Each parameter array should be the same length, with each index correlating.\n        @dev MUST emit Transfer event on success.\n        Caller must have sufficient allowance by _from for the _id/_value pair, or isApprovedForAll must be true.\n        Throws if `_to` is the zero address.\n        Throws if `_id` is not a valid token ID.\n        When transfer is complete, this function checks if `_to` is a smart contract (code size > 0). If so, it calls `onERC1155Received` on `_to` and throws if the return value is not `bytes4(keccak256(\"onERC1155Received(address,address,uint256,uint256,bytes)\"))`.\n        @param _from    source addresses\n        @param _to      target addresses\n        @param _id      ID of the Token\n        @param _value   transfer amounts\n        @param _data    Additional data with no specified format, sent in call to `_to`\n    */\n    function safeTransferFrom(address _from, address _to, uint256 _id, uint256 _value, bytes _data) external /*payable*/  {\n        if (msg.sender != _from) {\n            allowances[_from][msg.sender][_id] = allowances[_from][msg.sender][_id].sub(_value);\n        }\n        targetContract.safeTransferFrom(_from, _to, _id, _value, _data);\n    }\n\n    /**\n        @notice Send multiple types of Tokens from a 3rd party in one transfer (with safety call)\n        @dev MUST emit Transfer event per id on success.\n        Caller must have a sufficient allowance by _from for each of the id/value pairs.\n        Throws on any error rather than return a false flag to minimize user errors.\n        @param _from    Source address\n        @param _to      Target address\n        @param _ids     Types of Tokens\n        @param _values  Transfer amounts per token type\n        @param _data    Additional data with no specified format, sent in call to `_to`\n    */\n    function safeBatchTransferFrom(address _from, address _to, uint256[] _ids, uint256[] _values, bytes _data) external /*payable*/ {\n        if (msg.sender != _from) {\n            for (uint256 i = 0; i < _ids.length; ++i) {\n                allowances[_from][msg.sender][_ids[i]] = allowances[_from][msg.sender][_ids[i]].sub(_values[i]);\n            }\n        }\n        targetContract.safeBatchTransferFrom(_from, _to, _ids, _values, _data);\n    }\n\n    /**\n        @notice Get the balance of an account's Tokens\n        @param _owner  The address of the token holder\n        @param _id     ID of the Token\n        @return        The _owner's balance of the Token type requested\n     */\n    function balanceOf(address _owner, uint256 _id) external view returns (uint256) {\n        return targetContract.balanceOf(_owner, _id);\n    }\n\n    /**\n        @notice Enable or disable approval for a third party (\"operator\") to manage all of `msg.sender`'s tokens.\n        @dev MUST emit the ApprovalForAll event on success.\n    */\n    function setApprovalForAll(address /*_operator*/, bool /*_approved*/) external {\n        // Do this on the wrapped contract directly. We can't do this here\n        revert();\n    }\n\n    /**\n        @notice Queries the approval status of an operator for a given Token and owner\n        @param _owner     The owner of the Tokens\n        @param _operator  Address of authorized operator\n        @return           True if the operator is approved, false if not\n    */\n    function isApprovedForAll(address _owner, address _operator) view external returns (bool) {\n        return targetContract.isApprovedForAll(_owner, _operator);\n    }\n}\n",
  "sourcePath": "/Users/coinplug/BangGijin/moon-miner-contract/contracts/ERC1155/ERC1155AllowanceWrapper.sol",
  "compiler": {
    "name": "solc",
    "version": "0.4.24+commit.e67f0147.Emscripten.clang"
  },
  "schemaVersion": "2.0.1",
  "updatedAt": "2018-12-18T08:12:19.841Z"
}