{
  "contractName": "Area",
  "abi": [
    {
      "constant": true,
      "inputs": [],
      "name": "getCurrentBeneficiaryInfo",
      "outputs": [
        {
          "name": "beneficiary",
          "type": "address"
        },
        {
          "name": "ratio",
          "type": "uint256"
        }
      ],
      "payable": false,
      "stateMutability": "view",
      "type": "function"
    },
    {
      "constant": false,
      "inputs": [],
      "name": "moveCursor",
      "outputs": [
        {
          "name": "success",
          "type": "bool"
        }
      ],
      "payable": false,
      "stateMutability": "nonpayable",
      "type": "function"
    },
    {
      "constant": false,
      "inputs": [],
      "name": "buy",
      "outputs": [
        {
          "name": "success",
          "type": "bool"
        }
      ],
      "payable": true,
      "stateMutability": "payable",
      "type": "function"
    },
    {
      "constant": false,
      "inputs": [],
      "name": "sell",
      "outputs": [
        {
          "name": "success",
          "type": "bool"
        }
      ],
      "payable": false,
      "stateMutability": "nonpayable",
      "type": "function"
    }
  ],
  "bytecode": "0x608060405234801561001057600080fd5b50610149806100206000396000f3006080604052600436106100615763ffffffff7c0100000000000000000000000000000000000000000000000000000000600035041663318d8439811461006657806345710074146100ab578063a6f2ae3a146100d4578063af9093cb146100dc575b600080fd5b34801561007257600080fd5b5061007b6100f1565b6040805173ffffffffffffffffffffffffffffffffffffffff909316835260208301919091528051918290030190f35b3480156100b757600080fd5b506100c0610113565b604080519115158252519081900360200190f35b6100c0610118565b3480156100e857600080fd5b506100c0610118565b736f0f5673d69b4608ac9be5887b2f71f20d0c358767016345785d8a00009091565b600090565b6001905600a165627a7a72305820670509a0713bc7db95286da7975358d2336d7ff78fbfeee3cdf9c80cb5b140a60029",
  "source": "pragma solidity ^0.4.24;\n\n/**\n * @title Area\n * @dev Area\n */\ncontract Area {\n    \n    uint256 AreaWeight;\n    uint256 AreaBalance;\n    uint256 depositAmount;\n\n    function getCurrentBeneficiaryInfo() public view returns(address beneficiary, uint256 ratio){\n        return (0x6f0f5673d69b4608ac9be5887b2f71f20d0c3587, 10**17);\n    }\n\n    function moveCursor() public returns (bool success){\n        return true;\n    }\n\n    function buy() public payable returns (bool success){\n        // mintingAmount = calculatePurchaseReturn(totalSupply, AreaBalance, AreaWeight, depositAmount)\n        // batchMint(mintingAmount, msg.sender, \"Area0Security\")\n        // add holder to linked list if not exist\n        // set time lock\n        // (balance added to the contract)\n        return true;\n\n    }\n    function sell() public returns (bool success){\n        // buringAmount = calculateSaleReturn(totalSupply, AreaBalance, AreaWeight, depositAmount)\n        // batchBurn(burningAmount, msg.sender);\n        // send balance to the msg.sender\n        // remove holder from linked list if token balance == 0 and move cursor if needed\n        // set time lock\n    }\n}",
  "sourcePath": "/Users/coinplug/BangGijin/moon-miner-contract/contracts/Area.sol",
  "compiler": {
    "name": "solc",
    "version": "0.4.24+commit.e67f0147.Emscripten.clang"
  },
  "schemaVersion": "2.0.1",
  "updatedAt": "2018-12-18T08:27:13.018Z"
}