{
  "contractName": "Area",
  "abi": [
    {
      "constant": true,
      "inputs": [],
      "name": "getCurrentBeneficiaryInfo",
      "outputs": [
        {
          "name": "beneficiary",
          "type": "address"
        },
        {
          "name": "ratio",
          "type": "uint256"
        }
      ],
      "payable": false,
      "stateMutability": "view",
      "type": "function"
    },
    {
      "constant": false,
      "inputs": [],
      "name": "moveCursor",
      "outputs": [
        {
          "name": "success",
          "type": "bool"
        }
      ],
      "payable": false,
      "stateMutability": "nonpayable",
      "type": "function"
    }
  ],
  "bytecode": "0x608060405234801561001057600080fd5b50610142806100206000396000f30060806040526004361061004c576000357c0100000000000000000000000000000000000000000000000000000000900463ffffffff168063318d843914610051578063af9093cb146100af575b600080fd5b34801561005d57600080fd5b506100666100de565b604051808373ffffffffffffffffffffffffffffffffffffffff1673ffffffffffffffffffffffffffffffffffffffff1681526020018281526020019250505060405180910390f35b3480156100bb57600080fd5b506100c461010d565b604051808215151515815260200191505060405180910390f35b600080736f0f5673d69b4608ac9be5887b2f71f20d0c358767016345785d8a0000819150809050915091509091565b600060019050905600a165627a7a72305820431ff579459d2e898a8dabcc7fe13300ae388ba32f29c5f617bd2579515dc50c0029",
  "source": "pragma solidity ^0.4.24;\n\n/**\n * @title Area\n * @dev Area\n */\ncontract Area {\n    \n    function getCurrentBeneficiaryInfo() public view returns(address beneficiary, uint256 ratio){\n        return (0x6f0f5673d69b4608ac9be5887b2f71f20d0c3587, 10**17);\n    }\n\n    function moveCursor() public returns (bool success){\n        return true;\n    }\n}",
  "sourcePath": "/Users/coinplug/BangGijin/moon-miner-contract/contracts/Area.sol",
  "compiler": {
    "name": "solc",
    "version": "0.4.24+commit.e67f0147.Emscripten.clang"
  },
  "schemaVersion": "2.0.1",
  "updatedAt": "2018-12-18T07:22:38.913Z"
}