{
  "contractName": "ERC1155",
  "abi": [
    {
      "constant": true,
      "inputs": [],
      "name": "ERC1155_RECEIVED",
      "outputs": [
        {
          "name": "",
          "type": "bytes4"
        }
      ],
      "payable": false,
      "stateMutability": "view",
      "type": "function"
    },
    {
      "anonymous": false,
      "inputs": [
        {
          "indexed": true,
          "name": "_operator",
          "type": "address"
        },
        {
          "indexed": true,
          "name": "_from",
          "type": "address"
        },
        {
          "indexed": true,
          "name": "_to",
          "type": "address"
        },
        {
          "indexed": false,
          "name": "_id",
          "type": "uint256"
        },
        {
          "indexed": false,
          "name": "_value",
          "type": "uint256"
        }
      ],
      "name": "TransferSingle",
      "type": "event"
    },
    {
      "anonymous": false,
      "inputs": [
        {
          "indexed": true,
          "name": "_operator",
          "type": "address"
        },
        {
          "indexed": true,
          "name": "_from",
          "type": "address"
        },
        {
          "indexed": true,
          "name": "_to",
          "type": "address"
        },
        {
          "indexed": false,
          "name": "_ids",
          "type": "uint256[]"
        },
        {
          "indexed": false,
          "name": "_values",
          "type": "uint256[]"
        }
      ],
      "name": "TransferBatch",
      "type": "event"
    },
    {
      "anonymous": false,
      "inputs": [
        {
          "indexed": true,
          "name": "_owner",
          "type": "address"
        },
        {
          "indexed": true,
          "name": "_operator",
          "type": "address"
        },
        {
          "indexed": false,
          "name": "_approved",
          "type": "bool"
        }
      ],
      "name": "ApprovalForAll",
      "type": "event"
    },
    {
      "anonymous": false,
      "inputs": [
        {
          "indexed": false,
          "name": "_value",
          "type": "string"
        },
        {
          "indexed": true,
          "name": "_id",
          "type": "uint256"
        }
      ],
      "name": "URI",
      "type": "event"
    },
    {
      "anonymous": false,
      "inputs": [
        {
          "indexed": false,
          "name": "_value",
          "type": "string"
        },
        {
          "indexed": true,
          "name": "_id",
          "type": "uint256"
        }
      ],
      "name": "Name",
      "type": "event"
    },
    {
      "constant": true,
      "inputs": [
        {
          "name": "_interfaceId",
          "type": "bytes4"
        }
      ],
      "name": "supportsInterface",
      "outputs": [
        {
          "name": "",
          "type": "bool"
        }
      ],
      "payable": false,
      "stateMutability": "view",
      "type": "function"
    },
    {
      "constant": false,
      "inputs": [
        {
          "name": "_from",
          "type": "address"
        },
        {
          "name": "_to",
          "type": "address"
        },
        {
          "name": "_id",
          "type": "uint256"
        },
        {
          "name": "_value",
          "type": "uint256"
        },
        {
          "name": "_data",
          "type": "bytes"
        }
      ],
      "name": "safeTransferFrom",
      "outputs": [],
      "payable": false,
      "stateMutability": "nonpayable",
      "type": "function"
    },
    {
      "constant": false,
      "inputs": [
        {
          "name": "_from",
          "type": "address"
        },
        {
          "name": "_to",
          "type": "address"
        },
        {
          "name": "_ids",
          "type": "uint256[]"
        },
        {
          "name": "_values",
          "type": "uint256[]"
        },
        {
          "name": "_data",
          "type": "bytes"
        }
      ],
      "name": "safeBatchTransferFrom",
      "outputs": [],
      "payable": false,
      "stateMutability": "nonpayable",
      "type": "function"
    },
    {
      "constant": true,
      "inputs": [
        {
          "name": "_owner",
          "type": "address"
        },
        {
          "name": "_id",
          "type": "uint256"
        }
      ],
      "name": "balanceOf",
      "outputs": [
        {
          "name": "",
          "type": "uint256"
        }
      ],
      "payable": false,
      "stateMutability": "view",
      "type": "function"
    },
    {
      "constant": false,
      "inputs": [
        {
          "name": "_operator",
          "type": "address"
        },
        {
          "name": "_approved",
          "type": "bool"
        }
      ],
      "name": "setApprovalForAll",
      "outputs": [],
      "payable": false,
      "stateMutability": "nonpayable",
      "type": "function"
    },
    {
      "constant": true,
      "inputs": [
        {
          "name": "_owner",
          "type": "address"
        },
        {
          "name": "_operator",
          "type": "address"
        }
      ],
      "name": "isApprovedForAll",
      "outputs": [
        {
          "name": "",
          "type": "bool"
        }
      ],
      "payable": false,
      "stateMutability": "view",
      "type": "function"
    }
  ],
  "bytecode": "0x608060405234801561001057600080fd5b50610a6f806100206000396000f3006080604052600436106100685763ffffffff60e060020a600035041662fdd58e811461006d57806301ffc9a7146100a35780632eb2c2d6146100d9578063a22cb46514610128578063e0a5c9491461014e578063e985e9c514610180578063f242432a146101a7575b600080fd5b34801561007957600080fd5b50610091600160a060020a03600435166024356101e4565b60408051918252519081900360200190f35b3480156100af57600080fd5b506100c5600160e060020a031960043516610209565b604080519115158252519081900360200190f35b3480156100e557600080fd5b50610126600160a060020a03600480358216916024803590911691604435808301929082013591606435808301929082013591608435918201910135610282565b005b34801561013457600080fd5b50610126600160a060020a036004351660243515156106a0565b34801561015a57600080fd5b5061016361070e565b60408051600160e060020a03199092168252519081900360200190f35b34801561018c57600080fd5b506100c5600160a060020a0360043581169060243516610732565b3480156101b357600080fd5b50610126600160a060020a036004803582169160248035909116916044359160643591608435918201910135610760565b600090815260208181526040808320600160a060020a03949094168352929052205490565b6000600160e060020a031982167f01ffc9a700000000000000000000000000000000000000000000000000000000148061026c5750600160e060020a031982167f97a409d200000000000000000000000000000000000000000000000000000000145b156102795750600161027d565b5060005b919050565b60008080600160a060020a038a16151561029b57600080fd5b8786146102a757600080fd5b600160a060020a038b163314806102e55750600160a060020a038b1660009081526001602081815260408084203385529091529091205460ff161515145b151561037857604080517f08c379a000000000000000000000000000000000000000000000000000000000815260206004820152602f60248201527f4e656564206f70657261746f7220617070726f76616c20666f7220337264207060448201527f61727479207472616e73666572732e0000000000000000000000000000000000606482015290519081900360840190fd5b5060005b878110156104a25788888281811061039057fe5b90506020020135925086868281811015156103a757fe5b9050602002013591506103f88260008086815260200190815260200160002060008e600160a060020a0316600160a060020a0316815260200190815260200160002054610a1690919063ffffffff16565b60008085815260200190815260200160002060008d600160a060020a0316600160a060020a031681526020019081526020016000208190555061047960008085815260200190815260200160002060008c600160a060020a0316600160a060020a031681526020019081526020016000205483610a2890919063ffffffff16565b600084815260208181526040808320600160a060020a038f16845290915290205560010161037c565b89600160a060020a03168b600160a060020a031633600160a060020a03167f4a39dc06d4c0dbc64b70af90fd698a233a518aa5d07e595d983b8c0526c8f7fb8c8c8c8c6040518080602001806020018381038352878782818152602001925060200280828437909101848103835285815260209081019150869086028082843760405192018290039850909650505050505050a46105488a600160a060020a0316610a3b565b156106935763f23a6e6160e060020a027bffffffffffffffffffffffffffffffffffffffffffffffffffffffff19168a600160a060020a031663bc197c81338e8d8d8d8d8d8d6040518963ffffffff1660e060020a0281526004018089600160a060020a0316600160a060020a0316815260200188600160a060020a0316600160a060020a0316815260200180602001806020018060200184810384528a8a8281815260200192506020028082843790910185810384528881526020908101915089908902808284379091018581038352868152602001905086868082843782019150509b505050505050505050505050602060405180830381600087803b15801561065357600080fd5b505af1158015610667573d6000803e3d6000fd5b505050506040513d602081101561067d57600080fd5b5051600160e060020a0319161461069357600080fd5b5050505050505050505050565b336000818152600160209081526040808320600160a060020a03871680855290835292819020805460ff1916861515908117909155815190815290519293927f17307eab39ab6107e8899845ad3d59bd9653f200f220920489ca2b5937696c31929181900390910190a35050565b7ff23a6e610000000000000000000000000000000000000000000000000000000081565b600160a060020a03918216600090815260016020908152604080832093909416825291909152205460ff1690565b600160a060020a038516151561077557600080fd5b600160a060020a0386163314806107b35750600160a060020a03861660009081526001602081815260408084203385529091529091205460ff161515145b151561084657604080517f08c379a000000000000000000000000000000000000000000000000000000000815260206004820152602f60248201527f4e656564206f70657261746f7220617070726f76616c20666f7220337264207060448201527f61727479207472616e73666572732e0000000000000000000000000000000000606482015290519081900360840190fd5b600084815260208181526040808320600160a060020a038a168452909152902054610877908463ffffffff610a1616565b600085815260208181526040808320600160a060020a038b811685529252808320939093558716815220546108ad908490610a28565b600085815260208181526040808320600160a060020a03808b16808652918452938290209490945580518881529182018790528051928a169233927fc3d58168c5ae7397731d063d5bbf3d657854427343f4c083240f7aacaa2d0f6292908290030190a461092385600160a060020a0316610a3b565b15610a0e576040517ff23a6e61000000000000000000000000000000000000000000000000000000008082523360048301818152600160a060020a038a81166024860152604485018990526064850188905260a06084860190815260a486018790529394908a169363f23a6e6193928c928b928b928b928b929060c4018484808284378201915050975050505050505050602060405180830381600087803b1580156109ce57600080fd5b505af11580156109e2573d6000803e3d6000fd5b505050506040513d60208110156109f857600080fd5b5051600160e060020a03191614610a0e57600080fd5b505050505050565b600082821115610a2257fe5b50900390565b81810182811015610a3557fe5b92915050565b6000903b11905600a165627a7a723058204c062af1acc30842c4de5a701be18b35df1aa1d32cc7be1a3d520af87607a0310029",
  "source": "pragma solidity ^0.4.24;\n\nimport \"./SafeMath.sol\";\nimport \"./Address.sol\";\nimport \"./IERC1155TokenReceiver.sol\";\nimport \"./IERC1155.sol\";\n\n// A basic implementation of ERC1155.\n// Supports core 1155\ncontract ERC1155 is IERC1155, ERC165\n{\n    using SafeMath for uint256;\n    using Address for address;\n\n    bytes4 constant public ERC1155_RECEIVED = 0xf23a6e61;\n\n    // id => (owner => balance)\n    mapping (uint256 => mapping(address => uint256)) internal balances;\n\n    // owner => (operator => approved)\n    mapping (address => mapping(address => bool)) internal operatorApproval;\n\n/////////////////////////////////////////// ERC165 //////////////////////////////////////////////\n\n    /*\n        bytes4(keccak256('supportsInterface(bytes4)'));\n    */\n    bytes4 constant private INTERFACE_SIGNATURE_ERC165 = 0x01ffc9a7;\n\n    /*\n        bytes4(keccak256(\"safeTransferFrom(address,address,uint256,uint256,bytes)\")) ^\n        bytes4(keccak256(\"safeBatchTransferFrom(address,address,uint256[],uint256[],bytes)\")) ^\n        bytes4(keccak256(\"balanceOf(address,uint256)\")) ^\n        bytes4(keccak256(\"setApprovalForAll(address,bool)\")) ^\n        bytes4(keccak256(\"isApprovedForAll(address,address)\"));\n    */\n    bytes4 constant private INTERFACE_SIGNATURE_ERC1155 = 0x97a409d2;\n\n    function supportsInterface(bytes4 _interfaceId)\n    external\n    view\n    returns (bool) {\n         if (_interfaceId == INTERFACE_SIGNATURE_ERC165 ||\n             _interfaceId == INTERFACE_SIGNATURE_ERC1155) {\n            return true;\n         }\n\n         return false;\n    }\n\n/////////////////////////////////////////// ERC1155 //////////////////////////////////////////////\n\n    /**\n        @notice Transfers value amount of an _id from the _from address to the _to addresses specified. Each parameter array should be the same length, with each index correlating.\n        @dev MUST emit Transfer event on success.\n        Caller must have sufficient allowance by _from for the _id/_value pair, or isApprovedForAll must be true.\n        Throws if `_to` is the zero address.\n        Throws if `_id` is not a valid token ID.\n        When transfer is complete, this function checks if `_to` is a smart contract (code size > 0). If so, it calls `onERC1155Received` on `_to` and throws if the return value is not `bytes4(keccak256(\"onERC1155Received(address,address,uint256,uint256,bytes)\"))`.\n        @param _from    source addresses\n        @param _to      target addresses\n        @param _id      ID of the Token\n        @param _value   transfer amounts\n        @param _data    Additional data with no specified format, sent in call to `_to`\n    */\n\n    function safeTransferFrom(address _from, address _to, uint256 _id, uint256 _value, bytes _data) external {\n\n        require(_to != 0);\n        require(_from == msg.sender || operatorApproval[_from][msg.sender] == true, \"Need operator approval for 3rd party transfers.\");\n\n        // Note: SafeMath will deal with insuficient funds _from\n        balances[_id][_from] = balances[_id][_from].sub(_value);\n        balances[_id][_to]   = _value.add(balances[_id][_to]);\n\n        emit TransferSingle(msg.sender, _from, _to, _id, _value);\n\n        if (_to.isContract()) {\n            require(IERC1155TokenReceiver(_to).onERC1155Received(msg.sender, _from, _id, _value, _data) == ERC1155_RECEIVED);\n        }\n    }\n\n    /**\n        @notice Send multiple types of Tokens from a 3rd party in one transfer (with safety call)\n        @dev MUST emit Transfer event per id on success.\n        Caller must have a sufficient allowance by _from for each of the id/value pairs.\n        Throws on any error rather than return a false flag to minimize user errors.\n        @param _from    Source address\n        @param _to      Target address\n        @param _ids     Types of Tokens\n        @param _values  Transfer amounts per token type\n        @param _data    Additional data with no specified format, sent in call to `_to`\n    */\n    function safeBatchTransferFrom(address _from, address _to, uint256[] _ids, uint256[] _values, bytes _data) external {\n\n        require(_to != 0);\n        require(_ids.length == _values.length);\n\n        // Solidity does not scope variables, so declare them here.\n        uint256 id;\n        uint256 value;\n        uint256 i;\n\n        // Only supporting a global operator approval allows us to do only 1 check and not to touch storage to handle allowances.\n        require(_from == msg.sender || operatorApproval[_from][msg.sender] == true, \"Need operator approval for 3rd party transfers.\");\n\n        // We assume _ids.length == _values.length\n        // we don't check since out of bound access will throw.\n        for (i = 0; i < _ids.length; ++i) {\n            id = _ids[i];\n            value = _values[i];\n\n            balances[id][_from] = balances[id][_from].sub(value);\n            balances[id][_to] = value.add(balances[id][_to]);\n        }\n\n        emit TransferBatch(msg.sender, _from, _to, _ids, _values);\n\n        if (_to.isContract()) {\n            require(IERC1155TokenReceiver(_to).onERC1155BatchReceived(msg.sender, _from, _ids, _values, _data) == ERC1155_RECEIVED);\n        }\n    }\n\n    /**\n        @notice Get the balance of an account's Tokens\n        @param _owner  The address of the token holder\n        @param _id     ID of the Token\n        @return        The _owner's balance of the Token type requested\n     */\n    function balanceOf(address _owner, uint256 _id) external view returns (uint256) {\n        // The balance of any account can be calculated from the Transfer events history.\n        // However, since we need to keep the balances to validate transfer request,\n        // there is no extra cost to also privide a querry function.\n        return balances[_id][_owner];\n    }\n\n    /**\n        @notice Enable or disable approval for a third party (\"operator\") to manage all of `msg.sender`'s tokens.\n        @dev MUST emit the ApprovalForAll event on success.\n        @param _operator  Address to add to the set of authorized operators\n        @param _approved  True if the operator is approved, false to revoke approval\n    */\n    function setApprovalForAll(address _operator, bool _approved) external {\n        operatorApproval[msg.sender][_operator] = _approved;\n        emit ApprovalForAll(msg.sender, _operator, _approved);\n    }\n\n    /**\n        @notice Queries the approval status of an operator for a given Token and owner\n        @param _owner     The owner of the Tokens\n        @param _operator  Address of authorized operator\n        @return           True if the operator is approved, false if not\n    */\n    function isApprovedForAll(address _owner, address _operator) external view returns (bool) {\n        return operatorApproval[_owner][_operator];\n    }\n}\n",
  "sourcePath": "/Users/coinplug/BangGijin/moon-miner-contract/contracts/ERC1155/ERC1155.sol",
  "compiler": {
    "name": "solc",
    "version": "0.4.24+commit.e67f0147.Emscripten.clang"
  },
  "schemaVersion": "2.0.1",
  "updatedAt": "2018-12-18T08:12:19.839Z"
}