{
  "contractName": "ERC1155MixedFungible",
  "abi": [
    {
      "constant": true,
      "inputs": [
        {
          "name": "_interfaceId",
          "type": "bytes4"
        }
      ],
      "name": "supportsInterface",
      "outputs": [
        {
          "name": "",
          "type": "bool"
        }
      ],
      "payable": false,
      "stateMutability": "view",
      "type": "function"
    },
    {
      "constant": false,
      "inputs": [
        {
          "name": "_operator",
          "type": "address"
        },
        {
          "name": "_approved",
          "type": "bool"
        }
      ],
      "name": "setApprovalForAll",
      "outputs": [],
      "payable": false,
      "stateMutability": "nonpayable",
      "type": "function"
    },
    {
      "constant": true,
      "inputs": [],
      "name": "ERC1155_RECEIVED",
      "outputs": [
        {
          "name": "",
          "type": "bytes4"
        }
      ],
      "payable": false,
      "stateMutability": "view",
      "type": "function"
    },
    {
      "constant": true,
      "inputs": [
        {
          "name": "_owner",
          "type": "address"
        },
        {
          "name": "_operator",
          "type": "address"
        }
      ],
      "name": "isApprovedForAll",
      "outputs": [
        {
          "name": "",
          "type": "bool"
        }
      ],
      "payable": false,
      "stateMutability": "view",
      "type": "function"
    },
    {
      "anonymous": false,
      "inputs": [
        {
          "indexed": true,
          "name": "_operator",
          "type": "address"
        },
        {
          "indexed": true,
          "name": "_from",
          "type": "address"
        },
        {
          "indexed": true,
          "name": "_to",
          "type": "address"
        },
        {
          "indexed": false,
          "name": "_id",
          "type": "uint256"
        },
        {
          "indexed": false,
          "name": "_value",
          "type": "uint256"
        }
      ],
      "name": "TransferSingle",
      "type": "event"
    },
    {
      "anonymous": false,
      "inputs": [
        {
          "indexed": true,
          "name": "_operator",
          "type": "address"
        },
        {
          "indexed": true,
          "name": "_from",
          "type": "address"
        },
        {
          "indexed": true,
          "name": "_to",
          "type": "address"
        },
        {
          "indexed": false,
          "name": "_ids",
          "type": "uint256[]"
        },
        {
          "indexed": false,
          "name": "_values",
          "type": "uint256[]"
        }
      ],
      "name": "TransferBatch",
      "type": "event"
    },
    {
      "anonymous": false,
      "inputs": [
        {
          "indexed": true,
          "name": "_owner",
          "type": "address"
        },
        {
          "indexed": true,
          "name": "_operator",
          "type": "address"
        },
        {
          "indexed": false,
          "name": "_approved",
          "type": "bool"
        }
      ],
      "name": "ApprovalForAll",
      "type": "event"
    },
    {
      "anonymous": false,
      "inputs": [
        {
          "indexed": false,
          "name": "_value",
          "type": "string"
        },
        {
          "indexed": true,
          "name": "_id",
          "type": "uint256"
        }
      ],
      "name": "URI",
      "type": "event"
    },
    {
      "anonymous": false,
      "inputs": [
        {
          "indexed": false,
          "name": "_value",
          "type": "string"
        },
        {
          "indexed": true,
          "name": "_id",
          "type": "uint256"
        }
      ],
      "name": "Name",
      "type": "event"
    },
    {
      "constant": true,
      "inputs": [
        {
          "name": "_id",
          "type": "uint256"
        }
      ],
      "name": "isNonFungible",
      "outputs": [
        {
          "name": "",
          "type": "bool"
        }
      ],
      "payable": false,
      "stateMutability": "pure",
      "type": "function"
    },
    {
      "constant": true,
      "inputs": [
        {
          "name": "_id",
          "type": "uint256"
        }
      ],
      "name": "isFungible",
      "outputs": [
        {
          "name": "",
          "type": "bool"
        }
      ],
      "payable": false,
      "stateMutability": "pure",
      "type": "function"
    },
    {
      "constant": true,
      "inputs": [
        {
          "name": "_id",
          "type": "uint256"
        }
      ],
      "name": "getNonFungibleIndex",
      "outputs": [
        {
          "name": "",
          "type": "uint256"
        }
      ],
      "payable": false,
      "stateMutability": "pure",
      "type": "function"
    },
    {
      "constant": true,
      "inputs": [
        {
          "name": "_id",
          "type": "uint256"
        }
      ],
      "name": "getNonFungibleBaseType",
      "outputs": [
        {
          "name": "",
          "type": "uint256"
        }
      ],
      "payable": false,
      "stateMutability": "pure",
      "type": "function"
    },
    {
      "constant": true,
      "inputs": [
        {
          "name": "_id",
          "type": "uint256"
        }
      ],
      "name": "isNonFungibleBaseType",
      "outputs": [
        {
          "name": "",
          "type": "bool"
        }
      ],
      "payable": false,
      "stateMutability": "pure",
      "type": "function"
    },
    {
      "constant": true,
      "inputs": [
        {
          "name": "_id",
          "type": "uint256"
        }
      ],
      "name": "isNonFungibleItem",
      "outputs": [
        {
          "name": "",
          "type": "bool"
        }
      ],
      "payable": false,
      "stateMutability": "pure",
      "type": "function"
    },
    {
      "constant": true,
      "inputs": [
        {
          "name": "_id",
          "type": "uint256"
        }
      ],
      "name": "ownerOf",
      "outputs": [
        {
          "name": "",
          "type": "address"
        }
      ],
      "payable": false,
      "stateMutability": "view",
      "type": "function"
    },
    {
      "constant": false,
      "inputs": [
        {
          "name": "_from",
          "type": "address"
        },
        {
          "name": "_to",
          "type": "address"
        },
        {
          "name": "_id",
          "type": "uint256"
        },
        {
          "name": "_value",
          "type": "uint256"
        },
        {
          "name": "_data",
          "type": "bytes"
        }
      ],
      "name": "safeTransferFrom",
      "outputs": [],
      "payable": false,
      "stateMutability": "nonpayable",
      "type": "function"
    },
    {
      "constant": false,
      "inputs": [
        {
          "name": "_from",
          "type": "address"
        },
        {
          "name": "_to",
          "type": "address"
        },
        {
          "name": "_ids",
          "type": "uint256[]"
        },
        {
          "name": "_values",
          "type": "uint256[]"
        },
        {
          "name": "_data",
          "type": "bytes"
        }
      ],
      "name": "safeBatchTransferFrom",
      "outputs": [],
      "payable": false,
      "stateMutability": "nonpayable",
      "type": "function"
    },
    {
      "constant": true,
      "inputs": [
        {
          "name": "_owner",
          "type": "address"
        },
        {
          "name": "_id",
          "type": "uint256"
        }
      ],
      "name": "balanceOf",
      "outputs": [
        {
          "name": "",
          "type": "uint256"
        }
      ],
      "payable": false,
      "stateMutability": "view",
      "type": "function"
    }
  ],
  "bytecode": "0x608060405234801561001057600080fd5b50610dbc806100206000396000f3006080604052600436106100b55763ffffffff60e060020a600035041662fdd58e81146100ba57806301ffc9a7146100f05780632eb2c2d6146101265780635e81b958146101755780636352211e1461018d5780636f969c2d146101c15780637269a327146101d95780639cca1c64146101f1578063a22cb46514610209578063adebf6f21461022f578063e0a5c94914610247578063e44591f014610279578063e985e9c514610291578063f242432a146102b8575b600080fd5b3480156100c657600080fd5b506100de600160a060020a03600435166024356102f5565b60408051918252519081900360200190f35b3480156100fc57600080fd5b50610112600160e060020a031960043516610363565b604080519115158252519081900360200190f35b34801561013257600080fd5b50610173600160a060020a036004803582169160248035909116916044358083019290820135916064358083019290820135916084359182019101356103dc565b005b34801561018157600080fd5b506101126004356108d4565b34801561019957600080fd5b506101a56004356108fe565b60408051600160a060020a039092168252519081900360200190f35b3480156101cd57600080fd5b506100de600435610919565b3480156101e557600080fd5b5061011260043561092f565b3480156101fd57600080fd5b506100de600435610958565b34801561021557600080fd5b50610173600160a060020a0360043516602435151561096d565b34801561023b57600080fd5b506101126004356109db565b34801561025357600080fd5b5061025c6109e5565b60408051600160e060020a03199092168252519081900360200190f35b34801561028557600080fd5b50610112600435610a09565b34801561029d57600080fd5b50610112600160a060020a0360043581169060243516610a15565b3480156102c457600080fd5b50610173600160a060020a036004803582169160248035909116916044359160643591608435918201910135610a43565b6000610300826108d4565b1561033a57600082815260026020526040902054600160a060020a0384811691161461032d576000610330565b60015b60ff16905061035d565b50600081815260208181526040808320600160a060020a03861684529091529020545b92915050565b6000600160e060020a031982167f01ffc9a70000000000000000000000000000000000000000000000000000000014806103c65750600160e060020a031982167f97a409d200000000000000000000000000000000000000000000000000000000145b156103d3575060016103d7565b5060005b919050565b60008080600160a060020a038a161515610440576040805160e560020a62461bcd02815260206004820152601b60248201527f63616e6e6f742073656e6420746f207a65726f20616464726573730000000000604482015290519081900360640190fd5b878614610497576040805160e560020a62461bcd02815260206004820152601760248201527f4172726179206c656e677468206d757374206d61746368000000000000000000604482015290519081900360640190fd5b600160a060020a038b163314806104d55750600160a060020a038b1660009081526001602081815260408084203385529091529091205460ff161515145b1515610551576040805160e560020a62461bcd02815260206004820152602f60248201527f4e656564206f70657261746f7220617070726f76616c20666f7220337264207060448201527f61727479207472616e73666572732e0000000000000000000000000000000000606482015290519081900360840190fd5b600092505b878310156106d65788888481811061056a57fe5b905060200201359150868684818110151561058157fe5b90506020020135905061059382610a09565b156105f757600082815260026020526040902054600160a060020a038c81169116146105be57600080fd5b6000828152600260205260409020805473ffffffffffffffffffffffffffffffffffffffff1916600160a060020a038c161790556106cb565b600082815260208181526040808320600160a060020a038f168452909152902054610628908263ffffffff610d6916565b60008084815260200190815260200160002060008d600160a060020a0316600160a060020a03168152602001908152602001600020819055506106a960008084815260200190815260200160002060008c600160a060020a0316600160a060020a031681526020019081526020016000205482610d7b90919063ffffffff16565b600083815260208181526040808320600160a060020a038f1684529091529020555b826001019250610556565b89600160a060020a03168b600160a060020a031633600160a060020a03167f4a39dc06d4c0dbc64b70af90fd698a233a518aa5d07e595d983b8c0526c8f7fb8c8c8c8c6040518080602001806020018381038352878782818152602001925060200280828437909101848103835285815260209081019150869086028082843760405192018290039850909650505050505050a461077c8a600160a060020a0316610d88565b156108c75763f23a6e6160e060020a027bffffffffffffffffffffffffffffffffffffffffffffffffffffffff19168a600160a060020a031663bc197c81338e8d8d8d8d8d8d6040518963ffffffff1660e060020a0281526004018089600160a060020a0316600160a060020a0316815260200188600160a060020a0316600160a060020a0316815260200180602001806020018060200184810384528a8a8281815260200192506020028082843790910185810384528881526020908101915089908902808284379091018581038352868152602001905086868082843782019150509b505050505050505050505050602060405180830381600087803b15801561088757600080fd5b505af115801561089b573d6000803e3d6000fd5b505050506040513d60208110156108b157600080fd5b5051600160e060020a031916146108c757600080fd5b5050505050505050505050565b600060ff60020a80831614801561035d5750506fffffffffffffffffffffffffffffffff16151590565b600090815260026020526040902054600160a060020a031690565b6fffffffffffffffffffffffffffffffff191690565b600060ff60020a80831614801561035d5750506fffffffffffffffffffffffffffffffff161590565b6fffffffffffffffffffffffffffffffff1690565b336000818152600160209081526040808320600160a060020a03871680855290835292819020805460ff1916861515908117909155815190815290519293927f17307eab39ab6107e8899845ad3d59bd9653f200f220920489ca2b5937696c31929181900390910190a35050565b60ff60020a161590565b7ff23a6e610000000000000000000000000000000000000000000000000000000081565b60ff60020a9081161490565b600160a060020a03918216600090815260016020908152604080832093909416825291909152205460ff1690565b600160a060020a0385161515610a5857600080fd5b600160a060020a038616331480610a965750600160a060020a03861660009081526001602081815260408084203385529091529091205460ff161515145b1515610b12576040805160e560020a62461bcd02815260206004820152602f60248201527f4e656564206f70657261746f7220617070726f76616c20666f7220337264207060448201527f61727479207472616e73666572732e0000000000000000000000000000000000606482015290519081900360840190fd5b610b1b84610a09565b15610b7f57600084815260026020526040902054600160a060020a03878116911614610b4657600080fd5b6000848152600260205260409020805473ffffffffffffffffffffffffffffffffffffffff1916600160a060020a038716179055610c07565b600084815260208181526040808320600160a060020a038a168452909152902054610bb0908463ffffffff610d6916565b600085815260208181526040808320600160a060020a038b81168552925280832093909355871681522054610be59084610d7b565b600085815260208181526040808320600160a060020a038a1684529091529020555b84600160a060020a031686600160a060020a031633600160a060020a03167fc3d58168c5ae7397731d063d5bbf3d657854427343f4c083240f7aacaa2d0f628787604051808381526020018281526020019250505060405180910390a4610c7685600160a060020a0316610d88565b15610d61576040517ff23a6e61000000000000000000000000000000000000000000000000000000008082523360048301818152600160a060020a038a81166024860152604485018990526064850188905260a06084860190815260a486018790529394908a169363f23a6e6193928c928b928b928b928b929060c4018484808284378201915050975050505050505050602060405180830381600087803b158015610d2157600080fd5b505af1158015610d35573d6000803e3d6000fd5b505050506040513d6020811015610d4b57600080fd5b5051600160e060020a03191614610d6157600080fd5b505050505050565b600082821115610d7557fe5b50900390565b8181018281101561035d57fe5b6000903b11905600a165627a7a72305820a07af6f8df8a531d5f1bb91361d2c93ca15b5877fa9e56426935c8e7efca05110029",
  "source": "pragma solidity ^0.4.24;\n\nimport \"./ERC1155.sol\";\n\n/**\n    @dev Extension to ERC1155 for Mixed Fungible and Non-Fungible Items support\n    The main benefit is sharing of common type information, just like you do when\n    creating a fungible id.\n*/\ncontract ERC1155MixedFungible is ERC1155 {\n\n    // Use a split bit implementation.\n    // Store the type in the upper 128 bits..\n    uint256 constant TYPE_MASK = uint256(uint128(~0)) << 128;\n\n    // ..and the non-fungible index in the lower 128\n    uint256 constant NF_INDEX_MASK = uint128(~0);\n\n    // The top bit is a flag to tell if this is a NFI.\n    uint256 constant TYPE_NF_BIT = 1 << 255;\n\n    mapping (uint256 => address) nfOwners;\n\n    // Only to make code clearer. Should not be functions\n    function isNonFungible(uint256 _id) public pure returns(bool) {\n        return _id & TYPE_NF_BIT == TYPE_NF_BIT;\n    }\n    function isFungible(uint256 _id) public pure returns(bool) {\n        return _id & TYPE_NF_BIT == 0;\n    }\n    function getNonFungibleIndex(uint256 _id) public pure returns(uint256) {\n        return _id & NF_INDEX_MASK;\n    }\n    function getNonFungibleBaseType(uint256 _id) public pure returns(uint256) {\n        return _id & TYPE_MASK;\n    }\n    function isNonFungibleBaseType(uint256 _id) public pure returns(bool) {\n        // A base type has the NF bit but does not have an index.\n        return (_id & TYPE_NF_BIT == TYPE_NF_BIT) && (_id & NF_INDEX_MASK == 0);\n    }\n    function isNonFungibleItem(uint256 _id) public pure returns(bool) {\n        // A base type has the NF bit but does has an index.\n        return (_id & TYPE_NF_BIT == TYPE_NF_BIT) && (_id & NF_INDEX_MASK != 0);\n    }\n    function ownerOf(uint256 _id) public view returns (address) {\n        return nfOwners[_id];\n    }\n\n    // overide\n    function safeTransferFrom(address _from, address _to, uint256 _id, uint256 _value, bytes _data) external {\n\n        require(_to != 0);\n        require(_from == msg.sender || operatorApproval[_from][msg.sender] == true, \"Need operator approval for 3rd party transfers.\");\n\n        if (isNonFungible(_id)) {\n            require(nfOwners[_id] == _from);\n            nfOwners[_id] = _to;\n            // You could keep balance of NF type in base type id like so:\n            // uint256 baseType = getNonFungibleBaseType(_id);\n            // balances[baseType][_from] = balances[baseType][_from].sub(_value);\n            // balances[baseType][_to]   = balances[baseType][_to].add(_value);\n        } else {\n            balances[_id][_from] = balances[_id][_from].sub(_value);\n            balances[_id][_to]   = balances[_id][_to].add(_value);\n        }\n\n        emit TransferSingle(msg.sender, _from, _to, _id, _value);\n\n        if (_to.isContract()) {\n            require(IERC1155TokenReceiver(_to).onERC1155Received(msg.sender, _from, _id, _value, _data) == ERC1155_RECEIVED);\n        }\n    }\n\n    // overide\n    function safeBatchTransferFrom(address _from, address _to, uint256[] _ids, uint256[] _values, bytes _data) external {\n\n        require(_to != 0, \"cannot send to zero address\");\n        require(_ids.length == _values.length, \"Array length must match\");\n\n        // Only supporting a global operator approval allows us to do only 1 check and not to touch storage to handle allowances.\n        require(_from == msg.sender || operatorApproval[_from][msg.sender] == true, \"Need operator approval for 3rd party transfers.\");\n\n        for (uint256 i = 0; i < _ids.length; ++i) {\n            // Cache value to local variable to reduce read costs.\n            uint256 id = _ids[i];\n            uint256 value = _values[i];\n\n            if (isNonFungible(id)) {\n                require(nfOwners[id] == _from);\n                nfOwners[id] = _to;\n            } else {\n                balances[id][_from] = balances[id][_from].sub(value);\n                balances[id][_to]   = value.add(balances[id][_to]);\n            }\n        }\n\n        emit TransferBatch(msg.sender, _from, _to, _ids, _values);\n\n        if (_to.isContract()) {\n            require(IERC1155TokenReceiver(_to).onERC1155BatchReceived(msg.sender, _from, _ids, _values, _data) == ERC1155_RECEIVED);\n        }\n    }\n\n    function balanceOf(address _owner, uint256 _id) external view returns (uint256) {\n        if (isNonFungibleItem(_id))\n            return nfOwners[_id] == _owner ? 1 : 0;\n        return balances[_id][_owner];\n    }\n}\n",
  "sourcePath": "/Users/coinplug/BangGijin/moon-miner-contract/contracts/ERC1155/ERC1155MixedFungible.sol",
  "compiler": {
    "name": "solc",
    "version": "0.4.24+commit.e67f0147.Emscripten.clang"
  },
  "schemaVersion": "2.0.1",
  "updatedAt": "2018-12-18T08:12:19.843Z"
}