{
  "contractName": "ERC1155MockReceiver",
  "abi": [
    {
      "constant": true,
      "inputs": [],
      "name": "lastData",
      "outputs": [
        {
          "name": "",
          "type": "bytes"
        }
      ],
      "payable": false,
      "stateMutability": "view",
      "type": "function"
    },
    {
      "constant": true,
      "inputs": [],
      "name": "shouldReject",
      "outputs": [
        {
          "name": "",
          "type": "bool"
        }
      ],
      "payable": false,
      "stateMutability": "view",
      "type": "function"
    },
    {
      "constant": true,
      "inputs": [],
      "name": "lastValue",
      "outputs": [
        {
          "name": "",
          "type": "uint256"
        }
      ],
      "payable": false,
      "stateMutability": "view",
      "type": "function"
    },
    {
      "constant": true,
      "inputs": [],
      "name": "lastOperator",
      "outputs": [
        {
          "name": "",
          "type": "address"
        }
      ],
      "payable": false,
      "stateMutability": "view",
      "type": "function"
    },
    {
      "constant": true,
      "inputs": [],
      "name": "lastId",
      "outputs": [
        {
          "name": "",
          "type": "uint256"
        }
      ],
      "payable": false,
      "stateMutability": "view",
      "type": "function"
    },
    {
      "constant": true,
      "inputs": [],
      "name": "ERC1155_RECEIVED",
      "outputs": [
        {
          "name": "",
          "type": "bytes4"
        }
      ],
      "payable": false,
      "stateMutability": "view",
      "type": "function"
    },
    {
      "constant": false,
      "inputs": [
        {
          "name": "_value",
          "type": "bool"
        }
      ],
      "name": "setShouldReject",
      "outputs": [],
      "payable": false,
      "stateMutability": "nonpayable",
      "type": "function"
    },
    {
      "constant": false,
      "inputs": [
        {
          "name": "_operator",
          "type": "address"
        },
        {
          "name": "_from",
          "type": "address"
        },
        {
          "name": "_id",
          "type": "uint256"
        },
        {
          "name": "_value",
          "type": "uint256"
        },
        {
          "name": "_data",
          "type": "bytes"
        }
      ],
      "name": "onERC1155Received",
      "outputs": [
        {
          "name": "",
          "type": "bytes4"
        }
      ],
      "payable": false,
      "stateMutability": "nonpayable",
      "type": "function"
    },
    {
      "constant": false,
      "inputs": [
        {
          "name": "_operator",
          "type": "address"
        },
        {
          "name": "_from",
          "type": "address"
        },
        {
          "name": "_ids",
          "type": "uint256[]"
        },
        {
          "name": "_values",
          "type": "uint256[]"
        },
        {
          "name": "_data",
          "type": "bytes"
        }
      ],
      "name": "onERC1155BatchReceived",
      "outputs": [
        {
          "name": "",
          "type": "bytes4"
        }
      ],
      "payable": false,
      "stateMutability": "nonpayable",
      "type": "function"
    }
  ],
  "bytecode": "0x608060405234801561001057600080fd5b506105cf806100206000396000f30060806040526004361061007e5763ffffffff60e060020a6000350416626e75ec81146100835780631dbb93811461010d57806343183834146101365780636eb3cd491461015d578063a175b6381461019b578063bc197c81146101b7578063c1292cc314610246578063e0a5c9491461025b578063f23a6e6114610270575b600080fd5b34801561008f57600080fd5b506100986102ba565b6040805160208082528351818301528351919283929083019185019080838360005b838110156100d25781810151838201526020016100ba565b50505050905090810190601f1680156100ff5780820380516001836020036101000a031916815260200191505b509250505060405180910390f35b34801561011957600080fd5b50610122610347565b604080519115158252519081900360200190f35b34801561014257600080fd5b5061014b610350565b60408051918252519081900360200190f35b34801561016957600080fd5b50610172610356565b6040805173ffffffffffffffffffffffffffffffffffffffff9092168252519081900360200190f35b3480156101a757600080fd5b506101b56004351515610372565b005b3480156101c357600080fd5b5061021173ffffffffffffffffffffffffffffffffffffffff600480358216916024803590911691604435808301929082013591606435808301929082013591608435918201910135610385565b604080517fffffffff000000000000000000000000000000000000000000000000000000009092168252519081900360200190f35b34801561025257600080fd5b5061014b610446565b34801561026757600080fd5b5061021161044c565b34801561027c57600080fd5b5061021173ffffffffffffffffffffffffffffffffffffffff6004803582169160248035909116916044359160643591608435918201910135610470565b60018054604080516020600284861615610100026000190190941693909304601f8101849004840282018401909252818152929183018282801561033f5780601f106103145761010080835404028352916020019161033f565b820191906000526020600020905b81548152906001019060200180831161032257829003601f168201915b505050505081565b60005460ff1681565b60045481565b60025473ffffffffffffffffffffffffffffffffffffffff1681565b6000805460ff1916911515919091179055565b6002805473ffffffffffffffffffffffffffffffffffffffff191673ffffffffffffffffffffffffffffffffffffffff8a1617905560008686828181106103c857fe5b602002919091013560035550848460008181106103e157fe5b6020029190910135600455506103f960018484610508565b5060005460ff16151560011415610417575060e060020a870261043a565b507ff23a6e61000000000000000000000000000000000000000000000000000000005b98975050505050505050565b60035481565b7ff23a6e610000000000000000000000000000000000000000000000000000000081565b6002805473ffffffffffffffffffffffffffffffffffffffff191673ffffffffffffffffffffffffffffffffffffffff88161790556003849055600483905560006104bd60018484610508565b5060005460ff161515600114156104db575060e060020a85026104fe565b507ff23a6e61000000000000000000000000000000000000000000000000000000005b9695505050505050565b828054600181600116156101000203166002900490600052602060002090601f016020900481019282601f106105495782800160ff19823516178555610576565b82800160010185558215610576579182015b8281111561057657823582559160200191906001019061055b565b50610582929150610586565b5090565b6105a091905b80821115610582576000815560010161058c565b905600a165627a7a723058205f6a74c5b54c94b1fcad22dcc4fa4293b100d63f40139d6ad8160c518c8f275f0029",
  "source": "pragma solidity ^0.4.24;\n\n// Contract to test safe transfer behavior.\ncontract ERC1155MockReceiver {\n    bytes4 constant public ERC1155_RECEIVED = 0xf23a6e61;\n\n    // Keep values from last received contract.\n    bool public shouldReject;\n\n    bytes public lastData;\n    address public lastOperator;\n    uint256 public lastId;\n    uint256 public lastValue;\n\n    function setShouldReject(bool _value) public {\n        shouldReject = _value;\n    }\n\n    /**\n        @notice Handle the receipt of an ERC1155 type\n        @dev The smart contract calls this function on the recipient\n        after a `safeTransfer`. This function MAY throw to revert and reject the\n        transfer. Return of other than the magic value MUST result in the\n        transaction being reverted\n        Note: the contract address is always the message sender\n        @param _operator  The address which called `safeTransferFrom` function\n        @param _from      The address which previously owned the token\n        @param _id        The identifier of the item being transferred\n        @param _value     The amount of the item being transferred\n        @param _data      Additional data with no specified format\n        @return           `bytes4(keccak256(\"onERC1155Received(address,address,uint256,uint256,bytes)\"))`\n    */\n    function onERC1155Received(address _operator, address _from, uint256 _id, uint256 _value, bytes _data) external returns(bytes4) {\n        lastOperator = _operator;\n        lastId = _id;\n        lastValue = _value;\n        lastData = _data;\n        if (shouldReject == true) {\n            return bytes4(_from); // Some random value\n        } else {\n            return ERC1155_RECEIVED;\n        }\n    }\n\n    function onERC1155BatchReceived(address _operator, address _from, uint256[] _ids, uint256[] _values, bytes _data) external returns(bytes4) {\n        lastOperator = _operator;\n        lastId = _ids[0];\n        lastValue = _values[0];\n        lastData = _data;\n        if (shouldReject == true) {\n            return bytes4(_from); // Some random value\n        } else {\n            return ERC1155_RECEIVED;\n        }\n    }\n}\n",
  "sourcePath": "/Users/coinplug/BangGijin/moon-miner-contract/contracts/ERC1155/ERC1155MockReceiver.sol",
  "compiler": {
    "name": "solc",
    "version": "0.4.24+commit.e67f0147.Emscripten.clang"
  },
  "schemaVersion": "2.0.1",
  "updatedAt": "2018-12-18T08:12:19.846Z"
}