{
  "contractName": "ERC1155Mintable",
  "abi": [
    {
      "constant": true,
      "inputs": [
        {
          "name": "_owner",
          "type": "address"
        },
        {
          "name": "_id",
          "type": "uint256"
        }
      ],
      "name": "balanceOf",
      "outputs": [
        {
          "name": "",
          "type": "uint256"
        }
      ],
      "payable": false,
      "stateMutability": "view",
      "type": "function"
    },
    {
      "constant": true,
      "inputs": [
        {
          "name": "_interfaceId",
          "type": "bytes4"
        }
      ],
      "name": "supportsInterface",
      "outputs": [
        {
          "name": "",
          "type": "bool"
        }
      ],
      "payable": false,
      "stateMutability": "view",
      "type": "function"
    },
    {
      "constant": false,
      "inputs": [
        {
          "name": "_from",
          "type": "address"
        },
        {
          "name": "_to",
          "type": "address"
        },
        {
          "name": "_ids",
          "type": "uint256[]"
        },
        {
          "name": "_values",
          "type": "uint256[]"
        },
        {
          "name": "_data",
          "type": "bytes"
        }
      ],
      "name": "safeBatchTransferFrom",
      "outputs": [],
      "payable": false,
      "stateMutability": "nonpayable",
      "type": "function"
    },
    {
      "constant": false,
      "inputs": [
        {
          "name": "_operator",
          "type": "address"
        },
        {
          "name": "_approved",
          "type": "bool"
        }
      ],
      "name": "setApprovalForAll",
      "outputs": [],
      "payable": false,
      "stateMutability": "nonpayable",
      "type": "function"
    },
    {
      "constant": true,
      "inputs": [],
      "name": "nonce",
      "outputs": [
        {
          "name": "",
          "type": "uint256"
        }
      ],
      "payable": false,
      "stateMutability": "view",
      "type": "function"
    },
    {
      "constant": true,
      "inputs": [
        {
          "name": "",
          "type": "uint256"
        }
      ],
      "name": "creators",
      "outputs": [
        {
          "name": "",
          "type": "address"
        }
      ],
      "payable": false,
      "stateMutability": "view",
      "type": "function"
    },
    {
      "constant": true,
      "inputs": [],
      "name": "ERC1155_RECEIVED",
      "outputs": [
        {
          "name": "",
          "type": "bytes4"
        }
      ],
      "payable": false,
      "stateMutability": "view",
      "type": "function"
    },
    {
      "constant": true,
      "inputs": [
        {
          "name": "_owner",
          "type": "address"
        },
        {
          "name": "_operator",
          "type": "address"
        }
      ],
      "name": "isApprovedForAll",
      "outputs": [
        {
          "name": "",
          "type": "bool"
        }
      ],
      "payable": false,
      "stateMutability": "view",
      "type": "function"
    },
    {
      "constant": false,
      "inputs": [
        {
          "name": "_from",
          "type": "address"
        },
        {
          "name": "_to",
          "type": "address"
        },
        {
          "name": "_id",
          "type": "uint256"
        },
        {
          "name": "_value",
          "type": "uint256"
        },
        {
          "name": "_data",
          "type": "bytes"
        }
      ],
      "name": "safeTransferFrom",
      "outputs": [],
      "payable": false,
      "stateMutability": "nonpayable",
      "type": "function"
    },
    {
      "anonymous": false,
      "inputs": [
        {
          "indexed": true,
          "name": "_operator",
          "type": "address"
        },
        {
          "indexed": true,
          "name": "_from",
          "type": "address"
        },
        {
          "indexed": true,
          "name": "_to",
          "type": "address"
        },
        {
          "indexed": false,
          "name": "_id",
          "type": "uint256"
        },
        {
          "indexed": false,
          "name": "_value",
          "type": "uint256"
        }
      ],
      "name": "TransferSingle",
      "type": "event"
    },
    {
      "anonymous": false,
      "inputs": [
        {
          "indexed": true,
          "name": "_operator",
          "type": "address"
        },
        {
          "indexed": true,
          "name": "_from",
          "type": "address"
        },
        {
          "indexed": true,
          "name": "_to",
          "type": "address"
        },
        {
          "indexed": false,
          "name": "_ids",
          "type": "uint256[]"
        },
        {
          "indexed": false,
          "name": "_values",
          "type": "uint256[]"
        }
      ],
      "name": "TransferBatch",
      "type": "event"
    },
    {
      "anonymous": false,
      "inputs": [
        {
          "indexed": true,
          "name": "_owner",
          "type": "address"
        },
        {
          "indexed": true,
          "name": "_operator",
          "type": "address"
        },
        {
          "indexed": false,
          "name": "_approved",
          "type": "bool"
        }
      ],
      "name": "ApprovalForAll",
      "type": "event"
    },
    {
      "anonymous": false,
      "inputs": [
        {
          "indexed": false,
          "name": "_value",
          "type": "string"
        },
        {
          "indexed": true,
          "name": "_id",
          "type": "uint256"
        }
      ],
      "name": "URI",
      "type": "event"
    },
    {
      "anonymous": false,
      "inputs": [
        {
          "indexed": false,
          "name": "_value",
          "type": "string"
        },
        {
          "indexed": true,
          "name": "_id",
          "type": "uint256"
        }
      ],
      "name": "Name",
      "type": "event"
    },
    {
      "constant": false,
      "inputs": [
        {
          "name": "_initialSupply",
          "type": "uint256"
        },
        {
          "name": "_name",
          "type": "string"
        },
        {
          "name": "_uri",
          "type": "string"
        }
      ],
      "name": "create",
      "outputs": [
        {
          "name": "_id",
          "type": "uint256"
        }
      ],
      "payable": false,
      "stateMutability": "nonpayable",
      "type": "function"
    },
    {
      "constant": false,
      "inputs": [
        {
          "name": "_id",
          "type": "uint256"
        },
        {
          "name": "_to",
          "type": "address[]"
        },
        {
          "name": "_quantities",
          "type": "uint256[]"
        }
      ],
      "name": "mint",
      "outputs": [],
      "payable": false,
      "stateMutability": "nonpayable",
      "type": "function"
    },
    {
      "constant": false,
      "inputs": [
        {
          "name": "_uri",
          "type": "string"
        },
        {
          "name": "_id",
          "type": "uint256"
        }
      ],
      "name": "setURI",
      "outputs": [],
      "payable": false,
      "stateMutability": "nonpayable",
      "type": "function"
    },
    {
      "constant": false,
      "inputs": [
        {
          "name": "_name",
          "type": "string"
        },
        {
          "name": "_id",
          "type": "uint256"
        }
      ],
      "name": "setName",
      "outputs": [],
      "payable": false,
      "stateMutability": "nonpayable",
      "type": "function"
    }
  ],
  "bytecode": "0x608060405234801561001057600080fd5b50610ff4806100206000396000f3006080604052600436106100aa5763ffffffff60e060020a600035041662fdd58e81146100af57806301ffc9a7146100e55780632eb2c2d61461011b5780633baa81701461016a5780635a4463a81461018e57806367db3b8f146101be578063a22cb465146101e2578063affed0e014610208578063cd53d08e1461021d578063cfa84fc114610251578063e0a5c94914610281578063e985e9c5146102b3578063f242432a146102da575b600080fd5b3480156100bb57600080fd5b506100d3600160a060020a0360043516602435610317565b60408051918252519081900360200190f35b3480156100f157600080fd5b50610107600160e060020a03196004351661033c565b604080519115158252519081900360200190f35b34801561012757600080fd5b50610168600160a060020a036004803582169160248035909116916044358083019290820135916064358083019290820135916084359182019101356103b5565b005b34801561017657600080fd5b506101686024600480358281019291013590356107d3565b34801561019a57600080fd5b506100d360048035906024803580820192908101359160443590810191013561084f565b3480156101ca57600080fd5b50610168602460048035828101929101359035610996565b3480156101ee57600080fd5b50610168600160a060020a03600435166024351515610a12565b34801561021457600080fd5b506100d3610a80565b34801561022957600080fd5b50610235600435610a86565b60408051600160a060020a039092168252519081900360200190f35b34801561025d57600080fd5b50610168600480359060248035808201929081013591604435908101910135610aa1565b34801561028d57600080fd5b50610296610c93565b60408051600160e060020a03199092168252519081900360200190f35b3480156102bf57600080fd5b50610107600160a060020a0360043581169060243516610cb7565b3480156102e657600080fd5b50610168600160a060020a036004803582169160248035909116916044359160643591608435918201910135610ce5565b600090815260208181526040808320600160a060020a03949094168352929052205490565b6000600160e060020a031982167f01ffc9a700000000000000000000000000000000000000000000000000000000148061039f5750600160e060020a031982167f97a409d200000000000000000000000000000000000000000000000000000000145b156103ac575060016103b0565b5060005b919050565b60008080600160a060020a038a1615156103ce57600080fd5b8786146103da57600080fd5b600160a060020a038b163314806104185750600160a060020a038b1660009081526001602081815260408084203385529091529091205460ff161515145b15156104ab57604080517f08c379a000000000000000000000000000000000000000000000000000000000815260206004820152602f60248201527f4e656564206f70657261746f7220617070726f76616c20666f7220337264207060448201527f61727479207472616e73666572732e0000000000000000000000000000000000606482015290519081900360840190fd5b5060005b878110156105d5578888828181106104c357fe5b90506020020135925086868281811015156104da57fe5b90506020020135915061052b8260008086815260200190815260200160002060008e600160a060020a0316600160a060020a0316815260200190815260200160002054610f9b90919063ffffffff16565b60008085815260200190815260200160002060008d600160a060020a0316600160a060020a03168152602001908152602001600020819055506105ac60008085815260200190815260200160002060008c600160a060020a0316600160a060020a031681526020019081526020016000205483610fad90919063ffffffff16565b600084815260208181526040808320600160a060020a038f1684529091529020556001016104af565b89600160a060020a03168b600160a060020a031633600160a060020a03167f4a39dc06d4c0dbc64b70af90fd698a233a518aa5d07e595d983b8c0526c8f7fb8c8c8c8c6040518080602001806020018381038352878782818152602001925060200280828437909101848103835285815260209081019150869086028082843760405192018290039850909650505050505050a461067b8a600160a060020a0316610fc0565b156107c65763f23a6e6160e060020a027bffffffffffffffffffffffffffffffffffffffffffffffffffffffff19168a600160a060020a031663bc197c81338e8d8d8d8d8d8d6040518963ffffffff1660e060020a0281526004018089600160a060020a0316600160a060020a0316815260200188600160a060020a0316600160a060020a0316815260200180602001806020018060200184810384528a8a8281815260200192506020028082843790910185810384528881526020908101915089908902808284379091018581038352868152602001905086868082843782019150509b505050505050505050505050602060405180830381600087803b15801561078657600080fd5b505af115801561079a573d6000803e3d6000fd5b505050506040513d60208110156107b057600080fd5b5051600160e060020a031916146107c657600080fd5b5050505050505050505050565b6000818152600260205260409020548190600160a060020a031633146107f857600080fd5b817fff3def07d7c7c394f69343430b1b35857358827e67d61e6b8002b92564707caa85856040518080602001828103825284848281815260200192508082843760405192018290039550909350505050a250505050565b60038054600101908190556000818152600260209081526040808320805473ffffffffffffffffffffffffffffffffffffffff19163390811790915583835281842081855283528184208a905581518581529283018a9052815190939284927fc3d58168c5ae7397731d063d5bbf3d657854427343f4c083240f7aacaa2d0f6292918290030190a4600084111561093257807fff3def07d7c7c394f69343430b1b35857358827e67d61e6b8002b92564707caa86866040518080602001828103825284848281815260200192508082843760405192018290039550909350505050a25b600082111561098d57807f6bb7ff708619ba0610cba295a58592e0451dee2622938c8755667688daf3529b84846040518080602001828103825284848281815260200192508082843760405192018290039550909350505050a25b95945050505050565b6000818152600260205260409020548190600160a060020a031633146109bb57600080fd5b817f6bb7ff708619ba0610cba295a58592e0451dee2622938c8755667688daf3529b85856040518080602001828103825284848281815260200192508082843760405192018290039550909350505050a250505050565b336000818152600160209081526040808320600160a060020a03871680855290835292819020805460ff1916861515908117909155815190815290519293927f17307eab39ab6107e8899845ad3d59bd9653f200f220920489ca2b5937696c31929181900390910190a35050565b60035481565b600260205260009081526040902054600160a060020a031681565b600085815260026020526040812054819081908890600160a060020a03163314610aca57600080fd5b600093505b86841015610c8857878785818110610ae357fe5b90506020020135600160a060020a031692508585858181101515610b0357fe5b60008c815260208181526040808320600160a060020a038a168452825290912054910292909201359350610b3f9184915063ffffffff610fad16565b60008a815260208181526040808320600160a060020a0388168085529083528184209490945580518d8152918201869052805133927fc3d58168c5ae7397731d063d5bbf3d657854427343f4c083240f7aacaa2d0f6292908290030190a4610baf83600160a060020a0316610fc0565b15610c7d57604080517ff23a6e610000000000000000000000000000000000000000000000000000000080825233600483018190526024830152604482018c90526064820185905260a06084830152600060a4830181905292519092600160a060020a0387169263f23a6e619260e48083019360209383900390910190829087803b158015610c3d57600080fd5b505af1158015610c51573d6000803e3d6000fd5b505050506040513d6020811015610c6757600080fd5b5051600160e060020a03191614610c7d57600080fd5b836001019350610acf565b505050505050505050565b7ff23a6e610000000000000000000000000000000000000000000000000000000081565b600160a060020a03918216600090815260016020908152604080832093909416825291909152205460ff1690565b600160a060020a0385161515610cfa57600080fd5b600160a060020a038616331480610d385750600160a060020a03861660009081526001602081815260408084203385529091529091205460ff161515145b1515610dcb57604080517f08c379a000000000000000000000000000000000000000000000000000000000815260206004820152602f60248201527f4e656564206f70657261746f7220617070726f76616c20666f7220337264207060448201527f61727479207472616e73666572732e0000000000000000000000000000000000606482015290519081900360840190fd5b600084815260208181526040808320600160a060020a038a168452909152902054610dfc908463ffffffff610f9b16565b600085815260208181526040808320600160a060020a038b81168552925280832093909355871681522054610e32908490610fad565b600085815260208181526040808320600160a060020a03808b16808652918452938290209490945580518881529182018790528051928a169233927fc3d58168c5ae7397731d063d5bbf3d657854427343f4c083240f7aacaa2d0f6292908290030190a4610ea885600160a060020a0316610fc0565b15610f93576040517ff23a6e61000000000000000000000000000000000000000000000000000000008082523360048301818152600160a060020a038a81166024860152604485018990526064850188905260a06084860190815260a486018790529394908a169363f23a6e6193928c928b928b928b928b929060c4018484808284378201915050975050505050505050602060405180830381600087803b158015610f5357600080fd5b505af1158015610f67573d6000803e3d6000fd5b505050506040513d6020811015610f7d57600080fd5b5051600160e060020a03191614610f9357600080fd5b505050505050565b600082821115610fa757fe5b50900390565b81810182811015610fba57fe5b92915050565b6000903b11905600a165627a7a723058201b88feed12726111723281a009f74deed65dddb37d083b0f4fc6c907acb9ef610029",
  "source": "pragma solidity ^0.4.24;\n\nimport \"./ERC1155.sol\";\n\n/**\n    @dev Mintable form of ERC1155\n    Shows how easy it is to mint new items.\n*/\ncontract ERC1155Mintable is ERC1155 {\n\n    // id => creators\n    mapping (uint256 => address) public creators;\n\n    // A nonce to ensure we have a unique id each time we mint.\n    uint256 public nonce;\n\n    modifier creatorOnly(uint256 _id) {\n        require(creators[_id] == msg.sender);\n        _;\n    }\n\n    // Creates a new token type and assings _initialSupply to minter\n    function create(uint256 _initialSupply, string _name, string _uri) external returns(uint256 _id) {\n\n        _id = ++nonce;\n        creators[_id] = msg.sender;\n        balances[_id][msg.sender] = _initialSupply;\n\n        // Transfer event with mint semantic\n        emit TransferSingle(msg.sender, 0x0, msg.sender, _id, _initialSupply);\n\n        if (bytes(_name).length > 0)\n            emit Name(_name, _id);\n\n        if (bytes(_uri).length > 0)\n            emit URI(_uri, _id);\n    }\n\n    // Batch mint tokens. Assign directly to _to[].\n    function mint(uint256 _id, address[] _to, uint256[] _quantities) external creatorOnly(_id) {\n\n        for (uint256 i = 0; i < _to.length; ++i) {\n\n            address to = _to[i];\n            uint256 quantity = _quantities[i];\n\n            // Grant the items to the caller\n            balances[_id][to] = quantity.add(balances[_id][to]);\n\n            // Emit the Transfer/Mint event.\n            // the 0x0 source address implies a mint\n            // It will also provide the circulating supply info.\n            emit TransferSingle(msg.sender, 0x0, to, _id, quantity);\n\n            if (to.isContract()) {\n                require(IERC1155TokenReceiver(to).onERC1155Received(msg.sender, msg.sender, _id, quantity, '') == ERC1155_RECEIVED);\n            }\n        }\n    }\n\n    function setURI(string _uri, uint256 _id) external creatorOnly(_id) {\n        emit URI(_uri, _id);\n    }\n\n    function setName(string _name, uint256 _id) external creatorOnly(_id) {\n        emit Name(_name, _id);\n    }\n}\n",
  "sourcePath": "/Users/coinplug/BangGijin/moon-miner-contract/contracts/ERC1155/ERC1155Mintable.sol",
  "compiler": {
    "name": "solc",
    "version": "0.4.24+commit.e67f0147.Emscripten.clang"
  },
  "schemaVersion": "2.0.1",
  "updatedAt": "2018-12-18T08:12:19.842Z"
}