{
  "contractName": "ERC1155MixedFungibleMintable",
  "abi": [
    {
      "constant": true,
      "inputs": [
        {
          "name": "_owner",
          "type": "address"
        },
        {
          "name": "_id",
          "type": "uint256"
        }
      ],
      "name": "balanceOf",
      "outputs": [
        {
          "name": "",
          "type": "uint256"
        }
      ],
      "payable": false,
      "stateMutability": "view",
      "type": "function"
    },
    {
      "constant": true,
      "inputs": [
        {
          "name": "_interfaceId",
          "type": "bytes4"
        }
      ],
      "name": "supportsInterface",
      "outputs": [
        {
          "name": "",
          "type": "bool"
        }
      ],
      "payable": false,
      "stateMutability": "view",
      "type": "function"
    },
    {
      "constant": true,
      "inputs": [
        {
          "name": "",
          "type": "uint256"
        }
      ],
      "name": "maxIndex",
      "outputs": [
        {
          "name": "",
          "type": "uint256"
        }
      ],
      "payable": false,
      "stateMutability": "view",
      "type": "function"
    },
    {
      "constant": false,
      "inputs": [
        {
          "name": "_from",
          "type": "address"
        },
        {
          "name": "_to",
          "type": "address"
        },
        {
          "name": "_ids",
          "type": "uint256[]"
        },
        {
          "name": "_values",
          "type": "uint256[]"
        },
        {
          "name": "_data",
          "type": "bytes"
        }
      ],
      "name": "safeBatchTransferFrom",
      "outputs": [],
      "payable": false,
      "stateMutability": "nonpayable",
      "type": "function"
    },
    {
      "constant": true,
      "inputs": [
        {
          "name": "_id",
          "type": "uint256"
        }
      ],
      "name": "isNonFungibleItem",
      "outputs": [
        {
          "name": "",
          "type": "bool"
        }
      ],
      "payable": false,
      "stateMutability": "pure",
      "type": "function"
    },
    {
      "constant": true,
      "inputs": [
        {
          "name": "_id",
          "type": "uint256"
        }
      ],
      "name": "ownerOf",
      "outputs": [
        {
          "name": "",
          "type": "address"
        }
      ],
      "payable": false,
      "stateMutability": "view",
      "type": "function"
    },
    {
      "constant": true,
      "inputs": [
        {
          "name": "_id",
          "type": "uint256"
        }
      ],
      "name": "getNonFungibleBaseType",
      "outputs": [
        {
          "name": "",
          "type": "uint256"
        }
      ],
      "payable": false,
      "stateMutability": "pure",
      "type": "function"
    },
    {
      "constant": true,
      "inputs": [
        {
          "name": "_id",
          "type": "uint256"
        }
      ],
      "name": "isNonFungibleBaseType",
      "outputs": [
        {
          "name": "",
          "type": "bool"
        }
      ],
      "payable": false,
      "stateMutability": "pure",
      "type": "function"
    },
    {
      "constant": true,
      "inputs": [
        {
          "name": "_id",
          "type": "uint256"
        }
      ],
      "name": "getNonFungibleIndex",
      "outputs": [
        {
          "name": "",
          "type": "uint256"
        }
      ],
      "payable": false,
      "stateMutability": "pure",
      "type": "function"
    },
    {
      "constant": false,
      "inputs": [
        {
          "name": "_operator",
          "type": "address"
        },
        {
          "name": "_approved",
          "type": "bool"
        }
      ],
      "name": "setApprovalForAll",
      "outputs": [],
      "payable": false,
      "stateMutability": "nonpayable",
      "type": "function"
    },
    {
      "constant": true,
      "inputs": [
        {
          "name": "_id",
          "type": "uint256"
        }
      ],
      "name": "isFungible",
      "outputs": [
        {
          "name": "",
          "type": "bool"
        }
      ],
      "payable": false,
      "stateMutability": "pure",
      "type": "function"
    },
    {
      "constant": true,
      "inputs": [
        {
          "name": "",
          "type": "uint256"
        }
      ],
      "name": "creators",
      "outputs": [
        {
          "name": "",
          "type": "address"
        }
      ],
      "payable": false,
      "stateMutability": "view",
      "type": "function"
    },
    {
      "constant": true,
      "inputs": [],
      "name": "ERC1155_RECEIVED",
      "outputs": [
        {
          "name": "",
          "type": "bytes4"
        }
      ],
      "payable": false,
      "stateMutability": "view",
      "type": "function"
    },
    {
      "constant": true,
      "inputs": [
        {
          "name": "_id",
          "type": "uint256"
        }
      ],
      "name": "isNonFungible",
      "outputs": [
        {
          "name": "",
          "type": "bool"
        }
      ],
      "payable": false,
      "stateMutability": "pure",
      "type": "function"
    },
    {
      "constant": true,
      "inputs": [
        {
          "name": "_owner",
          "type": "address"
        },
        {
          "name": "_operator",
          "type": "address"
        }
      ],
      "name": "isApprovedForAll",
      "outputs": [
        {
          "name": "",
          "type": "bool"
        }
      ],
      "payable": false,
      "stateMutability": "view",
      "type": "function"
    },
    {
      "constant": false,
      "inputs": [
        {
          "name": "_from",
          "type": "address"
        },
        {
          "name": "_to",
          "type": "address"
        },
        {
          "name": "_id",
          "type": "uint256"
        },
        {
          "name": "_value",
          "type": "uint256"
        },
        {
          "name": "_data",
          "type": "bytes"
        }
      ],
      "name": "safeTransferFrom",
      "outputs": [],
      "payable": false,
      "stateMutability": "nonpayable",
      "type": "function"
    },
    {
      "anonymous": false,
      "inputs": [
        {
          "indexed": true,
          "name": "_operator",
          "type": "address"
        },
        {
          "indexed": true,
          "name": "_from",
          "type": "address"
        },
        {
          "indexed": true,
          "name": "_to",
          "type": "address"
        },
        {
          "indexed": false,
          "name": "_id",
          "type": "uint256"
        },
        {
          "indexed": false,
          "name": "_value",
          "type": "uint256"
        }
      ],
      "name": "TransferSingle",
      "type": "event"
    },
    {
      "anonymous": false,
      "inputs": [
        {
          "indexed": true,
          "name": "_operator",
          "type": "address"
        },
        {
          "indexed": true,
          "name": "_from",
          "type": "address"
        },
        {
          "indexed": true,
          "name": "_to",
          "type": "address"
        },
        {
          "indexed": false,
          "name": "_ids",
          "type": "uint256[]"
        },
        {
          "indexed": false,
          "name": "_values",
          "type": "uint256[]"
        }
      ],
      "name": "TransferBatch",
      "type": "event"
    },
    {
      "anonymous": false,
      "inputs": [
        {
          "indexed": true,
          "name": "_owner",
          "type": "address"
        },
        {
          "indexed": true,
          "name": "_operator",
          "type": "address"
        },
        {
          "indexed": false,
          "name": "_approved",
          "type": "bool"
        }
      ],
      "name": "ApprovalForAll",
      "type": "event"
    },
    {
      "anonymous": false,
      "inputs": [
        {
          "indexed": false,
          "name": "_value",
          "type": "string"
        },
        {
          "indexed": true,
          "name": "_id",
          "type": "uint256"
        }
      ],
      "name": "URI",
      "type": "event"
    },
    {
      "anonymous": false,
      "inputs": [
        {
          "indexed": false,
          "name": "_value",
          "type": "string"
        },
        {
          "indexed": true,
          "name": "_id",
          "type": "uint256"
        }
      ],
      "name": "Name",
      "type": "event"
    },
    {
      "constant": false,
      "inputs": [
        {
          "name": "_name",
          "type": "string"
        },
        {
          "name": "_uri",
          "type": "string"
        },
        {
          "name": "_isNF",
          "type": "bool"
        }
      ],
      "name": "create",
      "outputs": [
        {
          "name": "_type",
          "type": "uint256"
        }
      ],
      "payable": false,
      "stateMutability": "nonpayable",
      "type": "function"
    },
    {
      "constant": false,
      "inputs": [
        {
          "name": "_type",
          "type": "uint256"
        },
        {
          "name": "_to",
          "type": "address[]"
        }
      ],
      "name": "mintNonFungible",
      "outputs": [],
      "payable": false,
      "stateMutability": "nonpayable",
      "type": "function"
    },
    {
      "constant": false,
      "inputs": [
        {
          "name": "_id",
          "type": "uint256"
        },
        {
          "name": "_to",
          "type": "address[]"
        },
        {
          "name": "_quantities",
          "type": "uint256[]"
        }
      ],
      "name": "mintFungible",
      "outputs": [],
      "payable": false,
      "stateMutability": "nonpayable",
      "type": "function"
    }
  ],
  "bytecode": "0x608060405234801561001057600080fd5b506113ce806100206000396000f3006080604052600436106100ec5763ffffffff60e060020a600035041662fdd58e81146100f157806301ffc9a71461012757806308d7d4691461015d5780632eb2c2d6146101755780635e81b958146101c45780636352211e146101dc57806363892068146102105780636f969c2d146102415780637269a3271461025957806378b27221146102715780639cca1c64146102a1578063a22cb465146102b9578063adebf6f2146102df578063cd53d08e146102f7578063e0a5c9491461030f578063e44591f014610341578063e985e9c514610359578063f242432a14610380578063f9419088146103bd575b600080fd5b3480156100fd57600080fd5b50610115600160a060020a03600435166024356103e1565b60408051918252519081900360200190f35b34801561013357600080fd5b50610149600160e060020a03196004351661044f565b604080519115158252519081900360200190f35b34801561016957600080fd5b506101156004356104c8565b34801561018157600080fd5b506101c2600160a060020a036004803582169160248035909116916044358083019290820135916064358083019290820135916084359182019101356104da565b005b3480156101d057600080fd5b506101496004356109d2565b3480156101e857600080fd5b506101f46004356109fc565b60408051600160a060020a039092168252519081900360200190f35b34801561021c57600080fd5b5061011560246004803582810192908201359181359182019101356044351515610a17565b34801561024d57600080fd5b50610115600435610b59565b34801561026557600080fd5b50610149600435610b6f565b34801561027d57600080fd5b506101c2600480359060248035808201929081013591604435908101910135610b98565b3480156102ad57600080fd5b50610115600435610d76565b3480156102c557600080fd5b506101c2600160a060020a03600435166024351515610d8b565b3480156102eb57600080fd5b50610149600435610df9565b34801561030357600080fd5b506101f4600435610e03565b34801561031b57600080fd5b50610324610e1e565b60408051600160e060020a03199092168252519081900360200190f35b34801561034d57600080fd5b50610149600435610e2c565b34801561036557600080fd5b50610149600160a060020a0360043581169060243516610e38565b34801561038c57600080fd5b506101c2600160a060020a036004803582169160248035909116916044359160643591608435918201910135610e66565b3480156103c957600080fd5b506101c2600480359060248035908101910135611164565b60006103ec826109d2565b1561042657600082815260026020526040902054600160a060020a0384811691161461041957600061041c565b60015b60ff169050610449565b50600081815260208181526040808320600160a060020a03861684529091529020545b92915050565b6000600160e060020a031982167f01ffc9a70000000000000000000000000000000000000000000000000000000014806104b25750600160e060020a031982167f97a409d200000000000000000000000000000000000000000000000000000000145b156104bf575060016104c3565b5060005b919050565b60056020526000908152604090205481565b60008080600160a060020a038a16151561053e576040805160e560020a62461bcd02815260206004820152601b60248201527f63616e6e6f742073656e6420746f207a65726f20616464726573730000000000604482015290519081900360640190fd5b878614610595576040805160e560020a62461bcd02815260206004820152601760248201527f4172726179206c656e677468206d757374206d61746368000000000000000000604482015290519081900360640190fd5b600160a060020a038b163314806105d35750600160a060020a038b1660009081526001602081815260408084203385529091529091205460ff161515145b151561064f576040805160e560020a62461bcd02815260206004820152602f60248201527f4e656564206f70657261746f7220617070726f76616c20666f7220337264207060448201527f61727479207472616e73666572732e0000000000000000000000000000000000606482015290519081900360840190fd5b600092505b878310156107d45788888481811061066857fe5b905060200201359150868684818110151561067f57fe5b90506020020135905061069182610e2c565b156106f557600082815260026020526040902054600160a060020a038c81169116146106bc57600080fd5b6000828152600260205260409020805473ffffffffffffffffffffffffffffffffffffffff1916600160a060020a038c161790556107c9565b600082815260208181526040808320600160a060020a038f168452909152902054610726908263ffffffff61135b16565b60008084815260200190815260200160002060008d600160a060020a0316600160a060020a03168152602001908152602001600020819055506107a760008084815260200190815260200160002060008c600160a060020a0316600160a060020a03168152602001908152602001600020548261136d90919063ffffffff16565b600083815260208181526040808320600160a060020a038f1684529091529020555b826001019250610654565b89600160a060020a03168b600160a060020a031633600160a060020a03167f4a39dc06d4c0dbc64b70af90fd698a233a518aa5d07e595d983b8c0526c8f7fb8c8c8c8c6040518080602001806020018381038352878782818152602001925060200280828437909101848103835285815260209081019150869086028082843760405192018290039850909650505050505050a461087a8a600160a060020a031661137a565b156109c55763f23a6e6160e060020a027bffffffffffffffffffffffffffffffffffffffffffffffffffffffff19168a600160a060020a031663bc197c81338e8d8d8d8d8d8d6040518963ffffffff1660e060020a0281526004018089600160a060020a0316600160a060020a0316815260200188600160a060020a0316600160a060020a0316815260200180602001806020018060200184810384528a8a8281815260200192506020028082843790910185810384528881526020908101915089908902808284379091018581038352868152602001905086868082843782019150509b505050505050505050505050602060405180830381600087803b15801561098557600080fd5b505af1158015610999573d6000803e3d6000fd5b505050506040513d60208110156109af57600080fd5b5051600160e060020a031916146109c557600080fd5b5050505050505050505050565b600060ff60020a8083161480156104495750506fffffffffffffffffffffffffffffffff16151590565b600090815260026020526040902054600160a060020a031690565b6003805460010190819055700100000000000000000000000000000000028115610a425760ff60020a175b6000818152600460209081526040808320805473ffffffffffffffffffffffffffffffffffffffff1916339081179091558151858152928301849052815184939192600080516020611383833981519152928290030190a46000851115610af557807fff3def07d7c7c394f69343430b1b35857358827e67d61e6b8002b92564707caa87876040518080602001828103825284848281815260200192508082843760405192018290039550909350505050a25b6000831115610b5057807f6bb7ff708619ba0610cba295a58592e0451dee2622938c8755667688daf3529b85856040518080602001828103825284848281815260200192508082843760405192018290039550909350505050a25b95945050505050565b6fffffffffffffffffffffffffffffffff191690565b600060ff60020a8083161480156104495750506fffffffffffffffffffffffffffffffff161590565b600085815260046020526040812054819081908890600160a060020a03163314610bc157600080fd5b610bca89610df9565b1515610bd557600080fd5b600093505b86841015610d6b57878785818110610bee57fe5b90506020020135600160a060020a031692508585858181101515610c0e57fe5b60008c815260208181526040808320600160a060020a038a168452825290912054910292909201359350610c4a9184915063ffffffff61136d16565b60008a815260208181526040808320600160a060020a0388168085529083528184209490945580518d81529182018690528051339260008051602061138383398151915292908290030190a4610ca883600160a060020a031661137a565b15610d60576040805160e060020a63f23a6e610280825233600483018190526024830152604482018c90526064820185905260a06084830152600060a4830181905292519092600160a060020a0387169263f23a6e619260e48083019360209383900390910190829087803b158015610d2057600080fd5b505af1158015610d34573d6000803e3d6000fd5b505050506040513d6020811015610d4a57600080fd5b5051600160e060020a03191614610d6057600080fd5b836001019350610bda565b505050505050505050565b6fffffffffffffffffffffffffffffffff1690565b336000818152600160209081526040808320600160a060020a03871680855290835292819020805460ff1916861515908117909155815190815290519293927f17307eab39ab6107e8899845ad3d59bd9653f200f220920489ca2b5937696c31929181900390910190a35050565b60ff60020a161590565b600460205260009081526040902054600160a060020a031681565b60e060020a63f23a6e610281565b60ff60020a9081161490565b600160a060020a03918216600090815260016020908152604080832093909416825291909152205460ff1690565b600160a060020a0385161515610e7b57600080fd5b600160a060020a038616331480610eb95750600160a060020a03861660009081526001602081815260408084203385529091529091205460ff161515145b1515610f35576040805160e560020a62461bcd02815260206004820152602f60248201527f4e656564206f70657261746f7220617070726f76616c20666f7220337264207060448201527f61727479207472616e73666572732e0000000000000000000000000000000000606482015290519081900360840190fd5b610f3e84610e2c565b15610fa257600084815260026020526040902054600160a060020a03878116911614610f6957600080fd5b6000848152600260205260409020805473ffffffffffffffffffffffffffffffffffffffff1916600160a060020a03871617905561102a565b600084815260208181526040808320600160a060020a038a168452909152902054610fd3908463ffffffff61135b16565b600085815260208181526040808320600160a060020a038b81168552925280832093909355871681522054611008908461136d565b600085815260208181526040808320600160a060020a038a1684529091529020555b84600160a060020a031686600160a060020a031633600160a060020a03166000805160206113838339815191528787604051808381526020018281526020019250505060405180910390a461108785600160a060020a031661137a565b1561115c5760405160e060020a63f23a6e61028082523360048301818152600160a060020a038a81166024860152604485018990526064850188905260a06084860190815260a486018790529394908a169363f23a6e6193928c928b928b928b928b929060c4018484808284378201915050975050505050505050602060405180830381600087803b15801561111c57600080fd5b505af1158015611130573d6000803e3d6000fd5b505050506040513d602081101561114657600080fd5b5051600160e060020a0319161461115c57600080fd5b505050505050565b6000838152600460205260408120548190819081908790600160a060020a0316331461118f57600080fd5b61119888610e2c565b15156111a357600080fd5b600088815260056020526040812054600101955093505b8584101561131f578686858181106111ce57fe5b8787018b176000818152600260209081526040808320805473ffffffffffffffffffffffffffffffffffffffff1916600160a060020a039684029890980135959095169687179094558351838152600191810191909152835195985091965087949093503392600080516020611383833981519152928290030190a461125c83600160a060020a031661137a565b15611314576040805160e060020a63f23a6e610280825233600483018190526024830152604482018590526001606483015260a06084830152600060a4830181905292519092600160a060020a0387169263f23a6e619260e48083019360209383900390910190829087803b1580156112d457600080fd5b505af11580156112e8573d6000803e3d6000fd5b505050506040513d60208110156112fe57600080fd5b5051600160e060020a0319161461131457600080fd5b8360010193506111ba565b60008881526005602052604090205461133f90879063ffffffff61136d16565b6000988952600560205260409098209790975550505050505050565b60008282111561136757fe5b50900390565b8181018281101561044957fe5b6000903b11905600c3d58168c5ae7397731d063d5bbf3d657854427343f4c083240f7aacaa2d0f62a165627a7a72305820ea138e4ed7bc1601b8226f896136d59b7558209ac3c03f5eba3d4a993d472e1d0029",
  "source": "pragma solidity ^0.4.24;\n\nimport \"./ERC1155MixedFungible.sol\";\n\n/**\n    @dev Mintable form of ERC1155\n    Shows how easy it is to mint new items\n*/\ncontract ERC1155MixedFungibleMintable is ERC1155MixedFungible {\n\n    uint256 nonce;\n    mapping (uint256 => address) public creators;\n    mapping (uint256 => uint256) public maxIndex;\n\n    modifier creatorOnly(uint256 _id) {\n        require(creators[_id] == msg.sender);\n        _;\n    }\n\n    // This function only creates the type.\n    function create(\n        string _name,\n        string _uri,\n        bool   _isNF)\n    external returns(uint256 _type) {\n\n        // Store the type in the upper 128 bits\n        _type = (++nonce << 128);\n\n        // Set a flag if this is an NFI.\n        if (_isNF)\n          _type = _type | TYPE_NF_BIT;\n\n        // This will allow restricted access to creators.\n        creators[_type] = msg.sender;\n\n        // emit a Transfer event with Create semantic to help with discovery.\n        emit TransferSingle(msg.sender, 0x0, 0x0, _type, 0);\n\n        if (bytes(_name).length > 0)\n            emit Name(_name, _type);\n\n        if (bytes(_uri).length > 0)\n            emit URI(_uri, _type);\n    }\n\n    function mintNonFungible(uint256 _type, address[] _to) external creatorOnly(_type) {\n\n        // No need to check this is a nf type rather than an id since\n        // creatorOnly() will only let a type pass through.\n        require(isNonFungible(_type));\n\n        // Index are 1-based.\n        uint256 index = maxIndex[_type] + 1;\n\n        for (uint256 i = 0; i < _to.length; ++i) {\n            address dst = _to[i];\n            uint256 id  = _type | index + i;\n\n            nfOwners[id] = dst;\n\n            // You could use base-type id to store NF type balances if you wish.\n            // balances[_type][dst] = quantity.add(balances[_type][dst]);\n\n            emit TransferSingle(msg.sender, 0x0, dst, id, 1);\n\n            if (dst.isContract()) {\n                require(IERC1155TokenReceiver(dst).onERC1155Received(msg.sender, msg.sender, id, 1, '') == ERC1155_RECEIVED);\n            }\n        }\n\n        maxIndex[_type] = _to.length.add(maxIndex[_type]);\n    }\n\n    function mintFungible(uint256 _id, address[] _to, uint256[] _quantities)  external creatorOnly(_id) {\n\n        require(isFungible(_id));\n\n        for (uint256 i = 0; i < _to.length; ++i) {\n\n            address to = _to[i];\n            uint256 quantity = _quantities[i];\n\n            // Grant the items to the caller\n            balances[_id][to] = quantity.add(balances[_id][to]);\n\n            // Emit the Transfer/Mint event.\n            // the 0x0 source address implies a mint\n            // It will also provide the circulating supply info.\n            emit TransferSingle(msg.sender, 0x0, to, _id, quantity);\n\n            if (to.isContract()) {\n                require(IERC1155TokenReceiver(to).onERC1155Received(msg.sender, msg.sender, _id, quantity, '') == ERC1155_RECEIVED);\n            }\n        }\n    }\n}\n",
  "sourcePath": "/Users/coinplug/BangGijin/moon-miner-contract/contracts/ERC1155/ERC1155MixedFungibleMintable.sol",
  "compiler": {
    "name": "solc",
    "version": "0.4.24+commit.e67f0147.Emscripten.clang"
  },
  "schemaVersion": "2.0.1",
  "updatedAt": "2018-12-18T08:12:19.845Z"
}