{
  "contractName": "LibCLLu",
  "abi": [
    {
      "constant": true,
      "inputs": [],
      "name": "VERSION",
      "outputs": [
        {
          "name": "",
          "type": "bytes32"
        }
      ],
      "payable": false,
      "stateMutability": "view",
      "type": "function"
    }
  ],
  "bytecode": "0x60c261002f600b82828239805160001a6073146000811461001f57610021565bfe5b5030600052607381538281f300730000000000000000000000000000000000000000301460806040526004361060555763ffffffff7c0100000000000000000000000000000000000000000000000000000000600035041663ffa1ad748114605a575b600080fd5b60606072565b60408051918252519081900360200190f35b7f4c6962434c4c7520302e342e3100000000000000000000000000000000000000815600a165627a7a72305820799b28c3b95cae9cb4dbcfa5c744bc9ccab0031e65ed48f8a1577317a71492a00029",
  "source": "/*\nfile:   LibCLL.sol\nver:    0.4.1\nupdated:18-Dec-2017\nauthor: Darryl Morris\nemail:  o0ragman0o AT gmail.com\nA Solidity library for implementing a data indexing regime using\na circular linked list.\nThis library provisions lookup, navigation and key/index storage\nfunctionality which can be used in conjunction with an array or mapping.\nNOTICE: This library uses internal functions only and so cannot be compiled\nand deployed independently from its calling contract.\nThis software is distributed in the hope that it will be useful,\nbut WITHOUT ANY WARRANTY; without even the implied warranty of\nMERCHANTABILITY or FITNESS FOR A PARTICULAR PURPOSE.  \nSee MIT Licence for further details.\n<https://opensource.org/licenses/MIT>.\nRelease Notes:\n* Changed to MIT licensing\n* minimum Solidity version 0.4.17\n* using `view` modifier in place of `constant`\n* VERSION type changed from `string` to `bytes32`\n*/\n\npragma solidity ^0.4.17;\n\n// LibCLL using `uint` keys\nlibrary LibCLLu {\n\n    bytes32 constant public VERSION = \"LibCLLu 0.4.1\";\n    uint constant NULL = 0;\n    uint constant HEAD = 0;\n    bool constant PREV = false;\n    bool constant NEXT = true;\n    \n    struct CLL{\n        mapping (uint => mapping (bool => uint)) cll;\n    }\n\n    // n: node id  d: direction  r: return node id\n\n    // Return existential state of a list.\n    function exists(CLL storage self)\n        internal view returns (bool)\n    {\n        if (self.cll[HEAD][PREV] != HEAD || self.cll[HEAD][NEXT] != HEAD)\n            return true;\n    }\n    \n    // Returns the number of elements in the list\n    function sizeOf(CLL storage self)\n        internal view returns (uint r)\n    {\n        uint i = step(self, HEAD, NEXT);\n        while (i != HEAD) {\n            i = step(self, i, NEXT);\n            r++;\n        }\n        return;\n    }\n\n    // Returns the links of a node as and array\n    function getNode(CLL storage self, uint n)\n        internal view returns (uint[2])\n    {\n        return [self.cll[n][PREV], self.cll[n][NEXT]];\n    }\n\n    // Returns the link of a node `n` in direction `d`.\n    function step(CLL storage self, uint n, bool d)\n        internal view returns (uint)\n    {\n        return self.cll[n][d];\n    }\n\n    // Can be used before `insert` to build an ordered list\n    // `a` an existing node to search from, e.g. HEAD.\n    // `b` value to seek\n    // `r` first node beyond `b` in direction `d`\n    function seek(CLL storage self, uint a, uint b, bool d)\n        internal view returns (uint r)\n    {\n        r = step(self, a, d);\n        while  ((b!=r) && ((b < r) != d)) r = self.cll[r][d];\n        return;\n    }\n\n    // Creates a bidirectional link between two nodes on direction `d`\n    function stitch(CLL storage self, uint a, uint b, bool d) internal {\n        self.cll[b][!d] = a;\n        self.cll[a][d] = b;\n    }\n\n    // Insert node `b` beside existing node `a` in direction `d`.\n    function insert (CLL storage self, uint a, uint b, bool d) internal {\n        uint c = self.cll[a][d];\n        stitch (self, a, b, d);\n        stitch (self, b, c, d);\n    }\n    \n    // Remove node\n    function remove(CLL storage self, uint n) internal returns (uint) {\n        if (n == NULL) return;\n        stitch(self, self.cll[n][PREV], self.cll[n][NEXT], NEXT);\n        delete self.cll[n][PREV];\n        delete self.cll[n][NEXT];\n        return n;\n    }\n\n    // Push a new node before or after the head\n    function push(CLL storage self, uint n, bool d) internal {\n        insert(self, HEAD, n, d);\n    }\n    \n    // Pop a new node from before or after the head\n    function pop(CLL storage self, bool d) internal returns (uint) {\n        return remove(self, step(self, HEAD, d));\n    }\n}\n\n\n// LibCLL using `int` keys\nlibrary LibCLLi {\n\n    bytes32 constant public VERSION = \"LibCLLi 0.4.1\";\n    int constant NULL = 0;\n    int constant HEAD = 0;\n    bool constant PREV = false;\n    bool constant NEXT = true;\n    \n    struct CLL{\n        mapping (int => mapping (bool => int)) cll;\n    }\n\n    // n: node id  d: direction  r: return node id\n\n    // Return existential state of a list.\n    function exists(CLL storage self)\n        internal view returns (bool)\n    {\n        if (self.cll[HEAD][PREV] != HEAD || self.cll[HEAD][NEXT] != HEAD)\n            return true;\n    }\n\n    // Returns the number of elements in the list\n    function sizeOf(CLL storage self)\n        internal view returns (uint r)\n    {\n        int i = step(self, HEAD, NEXT);\n        while (i != HEAD) {\n            i = step(self, i, NEXT);\n            r++;\n        }\n        return;\n    }\n\n    // Returns the links of a node as and array\n    function getNode(CLL storage self, int n)\n        internal view returns (int[2])\n    {\n        return [self.cll[n][PREV], self.cll[n][NEXT]];\n    }\n\n    // Returns the link of a node `n` in direction `d`.\n    function step(CLL storage self, int n, bool d)\n        internal view returns (int)\n    {\n        return self.cll[n][d];\n    }\n\n    // Can be used before `insert` to build an ordered list\n    // `a` an existing node to search from, e.g. HEAD.\n    // `b` value to seek\n    // `r` first node beyond `b` in direction `d`\n    function seek(CLL storage self, int a, int b, bool d)\n        internal view returns (int r)\n    {\n        r = step(self, a, d);\n        while  ((b!=r) && ((b < r) != d)) r = self.cll[r][d];\n        return;\n    }\n\n    // Creates a bidirectional link between two nodes on direction `d`\n    function stitch(CLL storage self, int a, int b, bool d)\n        internal\n    {\n        self.cll[b][!d] = a;\n        self.cll[a][d] = b;\n    }\n\n    // Insert node `b` beside existing node `a` in direction `d`.\n    function insert (CLL storage self, int a, int b, bool d)\n        internal\n    {\n        int c = self.cll[a][d];\n        stitch (self, a, b, d);\n        stitch (self, b, c, d);\n    }\n    \n    // Remove node\n    function remove(CLL storage self, int n)\n        internal returns (int)\n    {\n        if (n == NULL) return;\n        stitch(self, self.cll[n][PREV], self.cll[n][NEXT], NEXT);\n        delete self.cll[n][PREV];\n        delete self.cll[n][NEXT];\n        return n;\n    }\n\n    // Push a new node before or after the head\n    function push(CLL storage self, int n, bool d)\n        internal\n    {\n        insert(self, HEAD, n, d);\n    }\n    \n    // Pop a new node from before or after the head\n    function pop(CLL storage self, bool d)\n        internal returns (int)\n    {\n        return remove(self, step(self, HEAD, d));\n    }\n}\n",
  "sourcePath": "/Users/coinplug/BangGijin/moon-miner-contract/contracts/utils/LibCLL.sol",
  "compiler": {
    "name": "solc",
    "version": "0.4.24+commit.e67f0147.Emscripten.clang"
  },
  "schemaVersion": "2.0.1",
  "updatedAt": "2018-12-18T08:27:13.014Z"
}