{
  "contractName": "Registry",
  "abi": [
    {
      "constant": false,
      "inputs": [],
      "name": "renounceOwnership",
      "outputs": [],
      "payable": false,
      "stateMutability": "nonpayable",
      "type": "function"
    },
    {
      "constant": true,
      "inputs": [],
      "name": "owner",
      "outputs": [
        {
          "name": "",
          "type": "address"
        }
      ],
      "payable": false,
      "stateMutability": "view",
      "type": "function"
    },
    {
      "constant": true,
      "inputs": [],
      "name": "isOwner",
      "outputs": [
        {
          "name": "",
          "type": "bool"
        }
      ],
      "payable": false,
      "stateMutability": "view",
      "type": "function"
    },
    {
      "constant": false,
      "inputs": [
        {
          "name": "newOwner",
          "type": "address"
        }
      ],
      "name": "transferOwnership",
      "outputs": [],
      "payable": false,
      "stateMutability": "nonpayable",
      "type": "function"
    },
    {
      "anonymous": false,
      "inputs": [
        {
          "indexed": false,
          "name": "setter",
          "type": "address"
        },
        {
          "indexed": true,
          "name": "name",
          "type": "bytes32"
        },
        {
          "indexed": true,
          "name": "addr",
          "type": "address"
        }
      ],
      "name": "SetDomain",
      "type": "event"
    },
    {
      "anonymous": false,
      "inputs": [
        {
          "indexed": true,
          "name": "domain",
          "type": "bytes32"
        },
        {
          "indexed": true,
          "name": "granted",
          "type": "address"
        },
        {
          "indexed": false,
          "name": "status",
          "type": "bool"
        }
      ],
      "name": "SetPermission",
      "type": "event"
    },
    {
      "anonymous": false,
      "inputs": [
        {
          "indexed": true,
          "name": "previousOwner",
          "type": "address"
        },
        {
          "indexed": true,
          "name": "newOwner",
          "type": "address"
        }
      ],
      "name": "OwnershipTransferred",
      "type": "event"
    },
    {
      "constant": false,
      "inputs": [
        {
          "name": "_name",
          "type": "bytes32"
        },
        {
          "name": "_addr",
          "type": "address"
        }
      ],
      "name": "setDomain",
      "outputs": [
        {
          "name": "success",
          "type": "bool"
        }
      ],
      "payable": false,
      "stateMutability": "nonpayable",
      "type": "function"
    },
    {
      "constant": true,
      "inputs": [
        {
          "name": "_name",
          "type": "bytes32"
        }
      ],
      "name": "getAddressOf",
      "outputs": [
        {
          "name": "addr",
          "type": "address"
        }
      ],
      "payable": false,
      "stateMutability": "view",
      "type": "function"
    },
    {
      "constant": false,
      "inputs": [
        {
          "name": "_domain",
          "type": "bytes32"
        },
        {
          "name": "_granted",
          "type": "address"
        },
        {
          "name": "_status",
          "type": "bool"
        }
      ],
      "name": "setPermission",
      "outputs": [
        {
          "name": "success",
          "type": "bool"
        }
      ],
      "payable": false,
      "stateMutability": "nonpayable",
      "type": "function"
    },
    {
      "constant": true,
      "inputs": [
        {
          "name": "_domain",
          "type": "bytes32"
        },
        {
          "name": "_granted",
          "type": "address"
        }
      ],
      "name": "getPermission",
      "outputs": [
        {
          "name": "found",
          "type": "bool"
        }
      ],
      "payable": false,
      "stateMutability": "view",
      "type": "function"
    }
  ],
  "bytecode": "0x6080604052336000806101000a81548173ffffffffffffffffffffffffffffffffffffffff021916908373ffffffffffffffffffffffffffffffffffffffff1602179055506000809054906101000a900473ffffffffffffffffffffffffffffffffffffffff1673ffffffffffffffffffffffffffffffffffffffff16600073ffffffffffffffffffffffffffffffffffffffff167f8be0079c531659141344cd1fd0a4f28419497f9722a3daafe3b4186f6b6457e060405160405180910390a3610a7f806100cf6000396000f30060806040526004361061008e576000357c0100000000000000000000000000000000000000000000000000000000900463ffffffff168063599e4c701461009357806360d6c7cf14610108578063715018a61461017157806387883aba146101885780638da5cb5b146101f15780638f32d59b14610248578063f2fde38b14610277578063fa86cf56146102ba575b600080fd5b34801561009f57600080fd5b506100ee6004803603810190808035600019169060200190929190803573ffffffffffffffffffffffffffffffffffffffff16906020019092919080351515906020019092919050505061032b565b604051808215151515815260200191505060405180910390f35b34801561011457600080fd5b506101576004803603810190808035600019169060200190929190803573ffffffffffffffffffffffffffffffffffffffff1690602001909291905050506104b7565b604051808215151515815260200191505060405180910390f35b34801561017d57600080fd5b50610186610527565b005b34801561019457600080fd5b506101d76004803603810190808035600019169060200190929190803573ffffffffffffffffffffffffffffffffffffffff1690602001909291905050506105f9565b604051808215151515815260200191505060405180910390f35b3480156101fd57600080fd5b50610206610796565b604051808273ffffffffffffffffffffffffffffffffffffffff1673ffffffffffffffffffffffffffffffffffffffff16815260200191505060405180910390f35b34801561025457600080fd5b5061025d6107bf565b604051808215151515815260200191505060405180910390f35b34801561028357600080fd5b506102b8600480360381019080803573ffffffffffffffffffffffffffffffffffffffff169060200190929190505050610816565b005b3480156102c657600080fd5b506102e96004803603810190808035600019169060200190929190505050610835565b604051808273ffffffffffffffffffffffffffffffffffffffff1673ffffffffffffffffffffffffffffffffffffffff16815260200191505060405180910390f35b60006103356107bf565b151561034057600080fd5b600073ffffffffffffffffffffffffffffffffffffffff168373ffffffffffffffffffffffffffffffffffffffff16141515156103e5576040517f08c379a000000000000000000000000000000000000000000000000000000000815260040180806020018281038252601a8152602001807f616464726573732073686f756c64206265206e6f6e2d7a65726f00000000000081525060200191505060405180910390fd5b8160026000866000191660001916815260200190815260200160002060008573ffffffffffffffffffffffffffffffffffffffff1673ffffffffffffffffffffffffffffffffffffffff16815260200190815260200160002060006101000a81548160ff0219169083151502179055508273ffffffffffffffffffffffffffffffffffffffff1684600019167fe9f5231bbfb4b32867755b94562215cff6c8998489de8ba20926f8d0980e781884604051808215151515815260200191505060405180910390a3600190509392505050565b600060026000846000191660001916815260200190815260200160002060008373ffffffffffffffffffffffffffffffffffffffff1673ffffffffffffffffffffffffffffffffffffffff16815260200190815260200160002060009054906101000a900460ff16905092915050565b61052f6107bf565b151561053a57600080fd5b600073ffffffffffffffffffffffffffffffffffffffff166000809054906101000a900473ffffffffffffffffffffffffffffffffffffffff1673ffffffffffffffffffffffffffffffffffffffff167f8be0079c531659141344cd1fd0a4f28419497f9722a3daafe3b4186f6b6457e060405160405180910390a360008060006101000a81548173ffffffffffffffffffffffffffffffffffffffff021916908373ffffffffffffffffffffffffffffffffffffffff160217905550565b60006106036107bf565b151561060e57600080fd5b600073ffffffffffffffffffffffffffffffffffffffff168273ffffffffffffffffffffffffffffffffffffffff16141515156106b3576040517f08c379a000000000000000000000000000000000000000000000000000000000815260040180806020018281038252601a8152602001807f616464726573732073686f756c64206265206e6f6e2d7a65726f00000000000081525060200191505060405180910390fd5b8160016000856000191660001916815260200190815260200160002060006101000a81548173ffffffffffffffffffffffffffffffffffffffff021916908373ffffffffffffffffffffffffffffffffffffffff1602179055508173ffffffffffffffffffffffffffffffffffffffff1683600019167fe2f5e14afa0ce7dad0eadad2f11d9a3c889ca1e4a6ce048f7e174aaade3f7e3633604051808273ffffffffffffffffffffffffffffffffffffffff1673ffffffffffffffffffffffffffffffffffffffff16815260200191505060405180910390a36001905092915050565b60008060009054906101000a900473ffffffffffffffffffffffffffffffffffffffff16905090565b60008060009054906101000a900473ffffffffffffffffffffffffffffffffffffffff1673ffffffffffffffffffffffffffffffffffffffff163373ffffffffffffffffffffffffffffffffffffffff1614905090565b61081e6107bf565b151561082957600080fd5b61083281610959565b50565b60008073ffffffffffffffffffffffffffffffffffffffff1660016000846000191660001916815260200190815260200160002060009054906101000a900473ffffffffffffffffffffffffffffffffffffffff1673ffffffffffffffffffffffffffffffffffffffff1614151515610916576040517f08c379a000000000000000000000000000000000000000000000000000000000815260040180806020018281038252601a8152602001807f616464726573732073686f756c64206265206e6f6e2d7a65726f00000000000081525060200191505060405180910390fd5b60016000836000191660001916815260200190815260200160002060009054906101000a900473ffffffffffffffffffffffffffffffffffffffff169050919050565b600073ffffffffffffffffffffffffffffffffffffffff168173ffffffffffffffffffffffffffffffffffffffff161415151561099557600080fd5b8073ffffffffffffffffffffffffffffffffffffffff166000809054906101000a900473ffffffffffffffffffffffffffffffffffffffff1673ffffffffffffffffffffffffffffffffffffffff167f8be0079c531659141344cd1fd0a4f28419497f9722a3daafe3b4186f6b6457e060405160405180910390a3806000806101000a81548173ffffffffffffffffffffffffffffffffffffffff021916908373ffffffffffffffffffffffffffffffffffffffff160217905550505600a165627a7a7230582062aa839cba7adfadf3178d8d6683f0d5c10784de51f40ef3a8e503253b2f80f20029",
  "source": "pragma solidity ^0.4.24;\n\nimport \"./openzeppelin-solidity/contracts/ownership/Ownable.sol\";\nimport \"./interface/IRegistry.sol\";\n/**\n * @title Registry\n * @dev Registry Contract used to set domain and permission\n * Owner should set domain and permission.\n */\ncontract Registry is IRegistry, Ownable {\n    \n    mapping(bytes32=>address) internal domains;\n    mapping(bytes32=>mapping(address=>bool)) internal permissions;\n\n    event SetDomain(address setter, bytes32 indexed name, address indexed addr);\n    event SetPermission(bytes32 indexed domain, address indexed granted, bool status);\n\n    /**\n    * @dev Function to set contract(can be general address) domain\n    * Only owner can use this function\n    * @param _name name\n    * @param _addr address\n    * @return A boolean that indicates if the operation was successful.\n    */\n    function setDomain(bytes32 _name, address _addr) public onlyOwner returns (bool success) {\n        require(_addr != address(0x0), \"address should be non-zero\");\n        domains[_name] = _addr;\n\n        emit SetDomain(msg.sender, _name, _addr);\n\n        return true;\n\n    }\n    /**\n    * @dev Function to get contract(can be general address) address\n    * Anyone can use this function\n    * @param _name _name\n    * @return An address of the _name\n    */\n    function getAddressOf(bytes32 _name) public view returns(address addr) {\n        require(domains[_name] != address(0x0), \"address should be non-zero\");\n        return domains[_name];\n    }\n\n    /**\n    * @dev Function to set permission on domain\n    * domain using modifier 'permissioned' references mapping variable 'permissions'\n    * Only owner can use this function\n    * @param _domain domain name\n    * @param _granted granted address\n    * @param _status true = can use, false = cannot use. default is false\n    * @return A boolean that indicates if the operation was successful.\n    */\n    function setPermission(bytes32 _domain, address _granted, bool _status) public onlyOwner returns(bool success) {\n        require(_granted != address(0x0), \"address should be non-zero\");\n        permissions[_domain][_granted] = _status;\n\n        emit SetPermission(_domain, _granted, _status);\n        \n        return true;\n    }\n\n    /**\n    * @dev Function to get permission on domain\n    * domain using modifier 'permissioned' references mapping variable 'permissions'\n    * @param _domain domain name\n    * @param _granted granted address\n    * @return permission result\n    */\n    function getPermission(bytes32 _domain, address _granted) public view returns(bool found) {\n        return permissions[_domain][_granted];\n    }\n    \n}",
  "sourcePath": "/Users/coinplug/BangGijin/moon-miner-contract/contracts/Registry.sol",
  "compiler": {
    "name": "solc",
    "version": "0.4.24+commit.e67f0147.Emscripten.clang"
  },
  "schemaVersion": "2.0.1",
  "updatedAt": "2018-12-18T07:22:38.915Z"
}